{
	"tricotContract.sol": {
		"TricotShop": {
			"abi": [
				{
					"inputs": [],
					"stateMutability": "nonpayable",
					"type": "constructor"
				},
				{
					"inputs": [
						{
							"internalType": "uint256",
							"name": "_quantity",
							"type": "uint256"
						}
					],
					"name": "buyTricot",
					"outputs": [],
					"stateMutability": "payable",
					"type": "function"
				},
				{
					"inputs": [
						{
							"internalType": "int256",
							"name": "_quantity",
							"type": "int256"
						}
					],
					"name": "modifyTricotStock",
					"outputs": [],
					"stateMutability": "nonpayable",
					"type": "function"
				},
				{
					"inputs": [],
					"name": "owner",
					"outputs": [
						{
							"internalType": "address",
							"name": "",
							"type": "address"
						}
					],
					"stateMutability": "view",
					"type": "function"
				},
				{
					"inputs": [
						{
							"internalType": "address",
							"name": "",
							"type": "address"
						}
					],
					"name": "tricotOwned",
					"outputs": [
						{
							"internalType": "uint256",
							"name": "",
							"type": "uint256"
						}
					],
					"stateMutability": "view",
					"type": "function"
				},
				{
					"inputs": [],
					"name": "tricotOwnedLimit",
					"outputs": [
						{
							"internalType": "uint256",
							"name": "",
							"type": "uint256"
						}
					],
					"stateMutability": "view",
					"type": "function"
				},
				{
					"inputs": [],
					"name": "tricotPrice",
					"outputs": [
						{
							"internalType": "uint256",
							"name": "",
							"type": "uint256"
						}
					],
					"stateMutability": "view",
					"type": "function"
				},
				{
					"inputs": [],
					"name": "tricotStock",
					"outputs": [
						{
							"internalType": "uint256",
							"name": "",
							"type": "uint256"
						}
					],
					"stateMutability": "view",
					"type": "function"
				},
				{
					"inputs": [],
					"name": "tricotStockLimit",
					"outputs": [
						{
							"internalType": "uint256",
							"name": "",
							"type": "uint256"
						}
					],
					"stateMutability": "view",
					"type": "function"
				},
				{
					"inputs": [
						{
							"internalType": "uint256",
							"name": "_newPrice",
							"type": "uint256"
						}
					],
					"name": "updateTricotPrice",
					"outputs": [],
					"stateMutability": "nonpayable",
					"type": "function"
				},
				{
					"inputs": [
						{
							"internalType": "uint256",
							"name": "_newLimit",
							"type": "uint256"
						}
					],
					"name": "updateTricotStockLimit",
					"outputs": [],
					"stateMutability": "nonpayable",
					"type": "function"
				}
			],
			"devdoc": {
				"kind": "dev",
				"methods": {},
				"version": 1
			},
			"evm": {
				"assembly": "    /* \"tricotContract.sol\":61:1852  contract TricotShop {... */\n  mstore(0x40, 0x80)\n    /* \"tricotContract.sol\":114:120  10 wei */\n  0x0a\n    /* \"tricotContract.sol\":88:120  uint public tricotPrice = 10 wei */\n  0x00\n  sstore\n    /* \"tricotContract.sol\":153:156  500 */\n  0x01f4\n    /* \"tricotContract.sol\":127:156  uint public tricotStock = 500 */\n  0x01\n  sstore\n    /* \"tricotContract.sol\":194:198  1000 */\n  0x03e8\n    /* \"tricotContract.sol\":163:198  uint public tricotStockLimit = 1000 */\n  0x02\n  sstore\n    /* \"tricotContract.sol\":313:315  20 */\n  0x14\n    /* \"tricotContract.sol\":282:315  uint public tricotOwnedLimit = 20 */\n  0x05\n  sstore\n    /* \"tricotContract.sol\":324:375  constructor() {... */\n  callvalue\n  dup1\n  iszero\n  tag_1\n  jumpi\n  0x00\n  dup1\n  revert\ntag_1:\n  pop\n    /* \"tricotContract.sol\":357:367  msg.sender */\n  caller\n    /* \"tricotContract.sol\":349:354  owner */\n  0x03\n  0x00\n    /* \"tricotContract.sol\":349:367  owner = msg.sender */\n  0x0100\n  exp\n  dup2\n  sload\n  dup2\n  0xffffffffffffffffffffffffffffffffffffffff\n  mul\n  not\n  and\n  swap1\n  dup4\n  0xffffffffffffffffffffffffffffffffffffffff\n  and\n  mul\n  or\n  swap1\n  sstore\n  pop\n    /* \"tricotContract.sol\":61:1852  contract TricotShop {... */\n  dataSize(sub_0)\n  dup1\n  dataOffset(sub_0)\n  0x00\n  codecopy\n  0x00\n  return\nstop\n\nsub_0: assembly {\n        /* \"tricotContract.sol\":61:1852  contract TricotShop {... */\n      mstore(0x40, 0x80)\n      jumpi(tag_1, lt(calldatasize, 0x04))\n      shr(0xe0, calldataload(0x00))\n      dup1\n      0x916357b8\n      gt\n      tag_12\n      jumpi\n      dup1\n      0x916357b8\n      eq\n      tag_7\n      jumpi\n      dup1\n      0xacde0b88\n      eq\n      tag_8\n      jumpi\n      dup1\n      0xc631db0f\n      eq\n      tag_9\n      jumpi\n      dup1\n      0xde58a55a\n      eq\n      tag_10\n      jumpi\n      dup1\n      0xedb651c1\n      eq\n      tag_11\n      jumpi\n      jump(tag_1)\n    tag_12:\n      dup1\n      0x0a56ad27\n      eq\n      tag_2\n      jumpi\n      dup1\n      0x48c0efb4\n      eq\n      tag_3\n      jumpi\n      dup1\n      0x49b414ba\n      eq\n      tag_4\n      jumpi\n      dup1\n      0x6651b81c\n      eq\n      tag_5\n      jumpi\n      dup1\n      0x8da5cb5b\n      eq\n      tag_6\n      jumpi\n    tag_1:\n      0x00\n      dup1\n      revert\n        /* \"tricotContract.sol\":163:198  uint public tricotStockLimit = 1000 */\n    tag_2:\n      callvalue\n      dup1\n      iszero\n      tag_13\n      jumpi\n      0x00\n      dup1\n      revert\n    tag_13:\n      pop\n      tag_14\n      tag_15\n      jump\t// in\n    tag_14:\n      mload(0x40)\n      tag_16\n      swap2\n      swap1\n      tag_17\n      jump\t// in\n    tag_16:\n      mload(0x40)\n      dup1\n      swap2\n      sub\n      swap1\n      return\n        /* \"tricotContract.sol\":88:120  uint public tricotPrice = 10 wei */\n    tag_3:\n      callvalue\n      dup1\n      iszero\n      tag_18\n      jumpi\n      0x00\n      dup1\n      revert\n    tag_18:\n      pop\n      tag_19\n      tag_20\n      jump\t// in\n    tag_19:\n      mload(0x40)\n      tag_21\n      swap2\n      swap1\n      tag_17\n      jump\t// in\n    tag_21:\n      mload(0x40)\n      dup1\n      swap2\n      sub\n      swap1\n      return\n        /* \"tricotContract.sol\":1354:1849  function buyTricot(uint _quantity) external payable {... */\n    tag_4:\n      tag_22\n      0x04\n      dup1\n      calldatasize\n      sub\n      dup2\n      add\n      swap1\n      tag_23\n      swap2\n      swap1\n      tag_24\n      jump\t// in\n    tag_23:\n      tag_25\n      jump\t// in\n    tag_22:\n      stop\n        /* \"tricotContract.sol\":513:680  function updateTricotPrice(uint _newPrice) public onlyOwner {... */\n    tag_5:\n      callvalue\n      dup1\n      iszero\n      tag_26\n      jumpi\n      0x00\n      dup1\n      revert\n    tag_26:\n      pop\n      tag_27\n      0x04\n      dup1\n      calldatasize\n      sub\n      dup2\n      add\n      swap1\n      tag_28\n      swap2\n      swap1\n      tag_24\n      jump\t// in\n    tag_28:\n      tag_29\n      jump\t// in\n    tag_27:\n      stop\n        /* \"tricotContract.sol\":205:225  address public owner */\n    tag_6:\n      callvalue\n      dup1\n      iszero\n      tag_30\n      jumpi\n      0x00\n      dup1\n      revert\n    tag_30:\n      pop\n      tag_31\n      tag_32\n      jump\t// in\n    tag_31:\n      mload(0x40)\n      tag_33\n      swap2\n      swap1\n      tag_34\n      jump\t// in\n    tag_33:\n      mload(0x40)\n      dup1\n      swap2\n      sub\n      swap1\n      return\n        /* \"tricotContract.sol\":688:892  function updateTricotStockLimit(uint _newLimit) public onlyOwner {... */\n    tag_7:\n      callvalue\n      dup1\n      iszero\n      tag_35\n      jumpi\n      0x00\n      dup1\n      revert\n    tag_35:\n      pop\n      tag_36\n      0x04\n      dup1\n      calldatasize\n      sub\n      dup2\n      add\n      swap1\n      tag_37\n      swap2\n      swap1\n      tag_24\n      jump\t// in\n    tag_37:\n      tag_38\n      jump\t// in\n    tag_36:\n      stop\n        /* \"tricotContract.sol\":232:275  mapping(address => uint) public tricotOwned */\n    tag_8:\n      callvalue\n      dup1\n      iszero\n      tag_39\n      jumpi\n      0x00\n      dup1\n      revert\n    tag_39:\n      pop\n      tag_40\n      0x04\n      dup1\n      calldatasize\n      sub\n      dup2\n      add\n      swap1\n      tag_41\n      swap2\n      swap1\n      tag_42\n      jump\t// in\n    tag_41:\n      tag_43\n      jump\t// in\n    tag_40:\n      mload(0x40)\n      tag_44\n      swap2\n      swap1\n      tag_17\n      jump\t// in\n    tag_44:\n      mload(0x40)\n      dup1\n      swap2\n      sub\n      swap1\n      return\n        /* \"tricotContract.sol\":127:156  uint public tricotStock = 500 */\n    tag_9:\n      callvalue\n      dup1\n      iszero\n      tag_45\n      jumpi\n      0x00\n      dup1\n      revert\n    tag_45:\n      pop\n      tag_46\n      tag_47\n      jump\t// in\n    tag_46:\n      mload(0x40)\n      tag_48\n      swap2\n      swap1\n      tag_17\n      jump\t// in\n    tag_48:\n      mload(0x40)\n      dup1\n      swap2\n      sub\n      swap1\n      return\n        /* \"tricotContract.sol\":282:315  uint public tricotOwnedLimit = 20 */\n    tag_10:\n      callvalue\n      dup1\n      iszero\n      tag_49\n      jumpi\n      0x00\n      dup1\n      revert\n    tag_49:\n      pop\n      tag_50\n      tag_51\n      jump\t// in\n    tag_50:\n      mload(0x40)\n      tag_52\n      swap2\n      swap1\n      tag_17\n      jump\t// in\n    tag_52:\n      mload(0x40)\n      dup1\n      swap2\n      sub\n      swap1\n      return\n        /* \"tricotContract.sol\":900:1346  function modifyTricotStock(int _quantity) public onlyOwner {... */\n    tag_11:\n      callvalue\n      dup1\n      iszero\n      tag_53\n      jumpi\n      0x00\n      dup1\n      revert\n    tag_53:\n      pop\n      tag_54\n      0x04\n      dup1\n      calldatasize\n      sub\n      dup2\n      add\n      swap1\n      tag_55\n      swap2\n      swap1\n      tag_56\n      jump\t// in\n    tag_55:\n      tag_57\n      jump\t// in\n    tag_54:\n      stop\n        /* \"tricotContract.sol\":163:198  uint public tricotStockLimit = 1000 */\n    tag_15:\n      sload(0x02)\n      dup2\n      jump\t// out\n        /* \"tricotContract.sol\":88:120  uint public tricotPrice = 10 wei */\n    tag_20:\n      sload(0x00)\n      dup2\n      jump\t// out\n        /* \"tricotContract.sol\":1354:1849  function buyTricot(uint _quantity) external payable {... */\n    tag_25:\n        /* \"tricotContract.sol\":1450:1461  tricotPrice */\n      sload(0x00)\n        /* \"tricotContract.sol\":1438:1447  _quantity */\n      dup2\n        /* \"tricotContract.sol\":1438:1461  _quantity * tricotPrice */\n      tag_59\n      swap2\n      swap1\n      tag_60\n      jump\t// in\n    tag_59:\n        /* \"tricotContract.sol\":1425:1434  msg.value */\n      callvalue\n        /* \"tricotContract.sol\":1425:1461  msg.value >= _quantity * tricotPrice */\n      lt\n      iszero\n        /* \"tricotContract.sol\":1417:1486  require(msg.value >= _quantity * tricotPrice, \"Insufficient payment\") */\n      tag_61\n      jumpi\n      mload(0x40)\n      0x08c379a000000000000000000000000000000000000000000000000000000000\n      dup2\n      mstore\n      0x04\n      add\n      tag_62\n      swap1\n      tag_63\n      jump\t// in\n    tag_62:\n      mload(0x40)\n      dup1\n      swap2\n      sub\n      swap1\n      revert\n    tag_61:\n        /* \"tricotContract.sol\":1517:1518  0 */\n      0x00\n        /* \"tricotContract.sol\":1505:1514  _quantity */\n      dup2\n        /* \"tricotContract.sol\":1505:1518  _quantity > 0 */\n      gt\n        /* \"tricotContract.sol\":1497:1554  require(_quantity > 0, \"Must purchase at least 1 Tricot\") */\n      tag_64\n      jumpi\n      mload(0x40)\n      0x08c379a000000000000000000000000000000000000000000000000000000000\n      dup2\n      mstore\n      0x04\n      add\n      tag_65\n      swap1\n      tag_66\n      jump\t// in\n    tag_65:\n      mload(0x40)\n      dup1\n      swap2\n      sub\n      swap1\n      revert\n    tag_64:\n        /* \"tricotContract.sol\":1586:1597  tricotStock */\n      sload(0x01)\n        /* \"tricotContract.sol\":1573:1582  _quantity */\n      dup2\n        /* \"tricotContract.sol\":1573:1597  _quantity <= tricotStock */\n      gt\n      iszero\n        /* \"tricotContract.sol\":1565:1628  require(_quantity <= tricotStock, \"Not enough stock available\") */\n      tag_67\n      jumpi\n      mload(0x40)\n      0x08c379a000000000000000000000000000000000000000000000000000000000\n      dup2\n      mstore\n      0x04\n      add\n      tag_68\n      swap1\n      tag_69\n      jump\t// in\n    tag_68:\n      mload(0x40)\n      dup1\n      swap2\n      sub\n      swap1\n      revert\n    tag_67:\n        /* \"tricotContract.sol\":1683:1699  tricotOwnedLimit */\n      sload(0x05)\n        /* \"tricotContract.sol\":1671:1680  _quantity */\n      dup2\n        /* \"tricotContract.sol\":1645:1656  tricotOwned */\n      0x04\n        /* \"tricotContract.sol\":1645:1668  tricotOwned[msg.sender] */\n      0x00\n        /* \"tricotContract.sol\":1657:1667  msg.sender */\n      caller\n        /* \"tricotContract.sol\":1645:1668  tricotOwned[msg.sender] */\n      0xffffffffffffffffffffffffffffffffffffffff\n      and\n      0xffffffffffffffffffffffffffffffffffffffff\n      and\n      dup2\n      mstore\n      0x20\n      add\n      swap1\n      dup2\n      mstore\n      0x20\n      add\n      0x00\n      keccak256\n      sload\n        /* \"tricotContract.sol\":1645:1680  tricotOwned[msg.sender] + _quantity */\n      tag_70\n      swap2\n      swap1\n      tag_71\n      jump\t// in\n    tag_70:\n        /* \"tricotContract.sol\":1645:1699  tricotOwned[msg.sender] + _quantity > tricotOwnedLimit */\n      gt\n        /* \"tricotContract.sol\":1641:1758  if (tricotOwned[msg.sender] + _quantity > tricotOwnedLimit) {... */\n      iszero\n      tag_72\n      jumpi\n        /* \"tricotContract.sol\":1716:1746  revert(\"Owned limit exceeded\") */\n      mload(0x40)\n      0x08c379a000000000000000000000000000000000000000000000000000000000\n      dup2\n      mstore\n      0x04\n      add\n      tag_73\n      swap1\n      tag_74\n      jump\t// in\n    tag_73:\n      mload(0x40)\n      dup1\n      swap2\n      sub\n      swap1\n      revert\n        /* \"tricotContract.sol\":1641:1758  if (tricotOwned[msg.sender] + _quantity > tricotOwnedLimit) {... */\n    tag_72:\n        /* \"tricotContract.sol\":1785:1794  _quantity */\n      dup1\n        /* \"tricotContract.sol\":1770:1781  tricotStock */\n      0x01\n      0x00\n        /* \"tricotContract.sol\":1770:1794  tricotStock -= _quantity */\n      dup3\n      dup3\n      sload\n      tag_75\n      swap2\n      swap1\n      tag_76\n      jump\t// in\n    tag_75:\n      swap3\n      pop\n      pop\n      dup2\n      swap1\n      sstore\n      pop\n        /* \"tricotContract.sol\":1832:1841  _quantity */\n      dup1\n        /* \"tricotContract.sol\":1805:1816  tricotOwned */\n      0x04\n        /* \"tricotContract.sol\":1805:1828  tricotOwned[msg.sender] */\n      0x00\n        /* \"tricotContract.sol\":1817:1827  msg.sender */\n      caller\n        /* \"tricotContract.sol\":1805:1828  tricotOwned[msg.sender] */\n      0xffffffffffffffffffffffffffffffffffffffff\n      and\n      0xffffffffffffffffffffffffffffffffffffffff\n      and\n      dup2\n      mstore\n      0x20\n      add\n      swap1\n      dup2\n      mstore\n      0x20\n      add\n      0x00\n      keccak256\n      0x00\n        /* \"tricotContract.sol\":1805:1841  tricotOwned[msg.sender] += _quantity */\n      dup3\n      dup3\n      sload\n      tag_77\n      swap2\n      swap1\n      tag_71\n      jump\t// in\n    tag_77:\n      swap3\n      pop\n      pop\n      dup2\n      swap1\n      sstore\n      pop\n        /* \"tricotContract.sol\":1354:1849  function buyTricot(uint _quantity) external payable {... */\n      pop\n      jump\t// out\n        /* \"tricotContract.sol\":513:680  function updateTricotPrice(uint _newPrice) public onlyOwner {... */\n    tag_29:\n        /* \"tricotContract.sol\":437:442  owner */\n      0x03\n      0x00\n      swap1\n      sload\n      swap1\n      0x0100\n      exp\n      swap1\n      div\n      0xffffffffffffffffffffffffffffffffffffffff\n      and\n        /* \"tricotContract.sol\":423:442  msg.sender == owner */\n      0xffffffffffffffffffffffffffffffffffffffff\n      and\n        /* \"tricotContract.sol\":423:433  msg.sender */\n      caller\n        /* \"tricotContract.sol\":423:442  msg.sender == owner */\n      0xffffffffffffffffffffffffffffffffffffffff\n      and\n      eq\n        /* \"tricotContract.sol\":415:485  require(msg.sender == owner, \"Only the owner can perform this action\") */\n      tag_79\n      jumpi\n      mload(0x40)\n      0x08c379a000000000000000000000000000000000000000000000000000000000\n      dup2\n      mstore\n      0x04\n      add\n      tag_80\n      swap1\n      tag_81\n      jump\t// in\n    tag_80:\n      mload(0x40)\n      dup1\n      swap2\n      sub\n      swap1\n      revert\n    tag_79:\n        /* \"tricotContract.sol\":604:605  0 */\n      0x00\n        /* \"tricotContract.sol\":592:601  _newPrice */\n      dup2\n        /* \"tricotContract.sol\":592:605  _newPrice > 0 */\n      gt\n        /* \"tricotContract.sol\":584:638  require(_newPrice > 0, \"Price must be greater than 0\") */\n      tag_83\n      jumpi\n      mload(0x40)\n      0x08c379a000000000000000000000000000000000000000000000000000000000\n      dup2\n      mstore\n      0x04\n      add\n      tag_84\n      swap1\n      tag_85\n      jump\t// in\n    tag_84:\n      mload(0x40)\n      dup1\n      swap2\n      sub\n      swap1\n      revert\n    tag_83:\n        /* \"tricotContract.sol\":663:672  _newPrice */\n      dup1\n        /* \"tricotContract.sol\":649:660  tricotPrice */\n      0x00\n        /* \"tricotContract.sol\":649:672  tricotPrice = _newPrice */\n      dup2\n      swap1\n      sstore\n      pop\n        /* \"tricotContract.sol\":513:680  function updateTricotPrice(uint _newPrice) public onlyOwner {... */\n      pop\n      jump\t// out\n        /* \"tricotContract.sol\":205:225  address public owner */\n    tag_32:\n      0x03\n      0x00\n      swap1\n      sload\n      swap1\n      0x0100\n      exp\n      swap1\n      div\n      0xffffffffffffffffffffffffffffffffffffffff\n      and\n      dup2\n      jump\t// out\n        /* \"tricotContract.sol\":688:892  function updateTricotStockLimit(uint _newLimit) public onlyOwner {... */\n    tag_38:\n        /* \"tricotContract.sol\":437:442  owner */\n      0x03\n      0x00\n      swap1\n      sload\n      swap1\n      0x0100\n      exp\n      swap1\n      div\n      0xffffffffffffffffffffffffffffffffffffffff\n      and\n        /* \"tricotContract.sol\":423:442  msg.sender == owner */\n      0xffffffffffffffffffffffffffffffffffffffff\n      and\n        /* \"tricotContract.sol\":423:433  msg.sender */\n      caller\n        /* \"tricotContract.sol\":423:442  msg.sender == owner */\n      0xffffffffffffffffffffffffffffffffffffffff\n      and\n      eq\n        /* \"tricotContract.sol\":415:485  require(msg.sender == owner, \"Only the owner can perform this action\") */\n      tag_87\n      jumpi\n      mload(0x40)\n      0x08c379a000000000000000000000000000000000000000000000000000000000\n      dup2\n      mstore\n      0x04\n      add\n      tag_88\n      swap1\n      tag_81\n      jump\t// in\n    tag_88:\n      mload(0x40)\n      dup1\n      swap2\n      sub\n      swap1\n      revert\n    tag_87:\n        /* \"tricotContract.sol\":785:796  tricotStock */\n      sload(0x01)\n        /* \"tricotContract.sol\":772:781  _newLimit */\n      dup2\n        /* \"tricotContract.sol\":772:796  _newLimit >= tricotStock */\n      lt\n      iszero\n        /* \"tricotContract.sol\":764:845  require(_newLimit >= tricotStock, \"New limit cannot be lower than current stock\") */\n      tag_90\n      jumpi\n      mload(0x40)\n      0x08c379a000000000000000000000000000000000000000000000000000000000\n      dup2\n      mstore\n      0x04\n      add\n      tag_91\n      swap1\n      tag_92\n      jump\t// in\n    tag_91:\n      mload(0x40)\n      dup1\n      swap2\n      sub\n      swap1\n      revert\n    tag_90:\n        /* \"tricotContract.sol\":875:884  _newLimit */\n      dup1\n        /* \"tricotContract.sol\":856:872  tricotStockLimit */\n      0x02\n        /* \"tricotContract.sol\":856:884  tricotStockLimit = _newLimit */\n      dup2\n      swap1\n      sstore\n      pop\n        /* \"tricotContract.sol\":688:892  function updateTricotStockLimit(uint _newLimit) public onlyOwner {... */\n      pop\n      jump\t// out\n        /* \"tricotContract.sol\":232:275  mapping(address => uint) public tricotOwned */\n    tag_43:\n      mstore(0x20, 0x04)\n      dup1\n      0x00\n      mstore\n      keccak256(0x00, 0x40)\n      0x00\n      swap2\n      pop\n      swap1\n      pop\n      sload\n      dup2\n      jump\t// out\n        /* \"tricotContract.sol\":127:156  uint public tricotStock = 500 */\n    tag_47:\n      sload(0x01)\n      dup2\n      jump\t// out\n        /* \"tricotContract.sol\":282:315  uint public tricotOwnedLimit = 20 */\n    tag_51:\n      sload(0x05)\n      dup2\n      jump\t// out\n        /* \"tricotContract.sol\":900:1346  function modifyTricotStock(int _quantity) public onlyOwner {... */\n    tag_57:\n        /* \"tricotContract.sol\":437:442  owner */\n      0x03\n      0x00\n      swap1\n      sload\n      swap1\n      0x0100\n      exp\n      swap1\n      div\n      0xffffffffffffffffffffffffffffffffffffffff\n      and\n        /* \"tricotContract.sol\":423:442  msg.sender == owner */\n      0xffffffffffffffffffffffffffffffffffffffff\n      and\n        /* \"tricotContract.sol\":423:433  msg.sender */\n      caller\n        /* \"tricotContract.sol\":423:442  msg.sender == owner */\n      0xffffffffffffffffffffffffffffffffffffffff\n      and\n      eq\n        /* \"tricotContract.sol\":415:485  require(msg.sender == owner, \"Only the owner can perform this action\") */\n      tag_94\n      jumpi\n      mload(0x40)\n      0x08c379a000000000000000000000000000000000000000000000000000000000\n      dup2\n      mstore\n      0x04\n      add\n      tag_95\n      swap1\n      tag_81\n      jump\t// in\n    tag_95:\n      mload(0x40)\n      dup1\n      swap2\n      sub\n      swap1\n      revert\n    tag_94:\n        /* \"tricotContract.sol\":986:987  0 */\n      0x00\n        /* \"tricotContract.sol\":974:983  _quantity */\n      dup2\n        /* \"tricotContract.sol\":974:987  _quantity > 0 */\n      sgt\n        /* \"tricotContract.sol\":970:1339  if (_quantity > 0) {... */\n      iszero\n      tag_97\n      jumpi\n        /* \"tricotContract.sol\":1045:1061  tricotStockLimit */\n      sload(0x02)\n        /* \"tricotContract.sol\":1031:1040  _quantity */\n      dup2\n        /* \"tricotContract.sol\":1012:1023  tricotStock */\n      sload(0x01)\n        /* \"tricotContract.sol\":1012:1041  tricotStock + uint(_quantity) */\n      tag_98\n      swap2\n      swap1\n      tag_71\n      jump\t// in\n    tag_98:\n        /* \"tricotContract.sol\":1012:1061  tricotStock + uint(_quantity) <= tricotStockLimit */\n      gt\n      iszero\n        /* \"tricotContract.sol\":1004:1085  require(tricotStock + uint(_quantity) <= tricotStockLimit, \"Exceeds stock limit\") */\n      tag_99\n      jumpi\n      mload(0x40)\n      0x08c379a000000000000000000000000000000000000000000000000000000000\n      dup2\n      mstore\n      0x04\n      add\n      tag_100\n      swap1\n      tag_101\n      jump\t// in\n    tag_100:\n      mload(0x40)\n      dup1\n      swap2\n      sub\n      swap1\n      revert\n    tag_99:\n        /* \"tricotContract.sol\":1120:1129  _quantity */\n      dup1\n        /* \"tricotContract.sol\":1100:1111  tricotStock */\n      0x01\n      0x00\n        /* \"tricotContract.sol\":1100:1130  tricotStock += uint(_quantity) */\n      dup3\n      dup3\n      sload\n      tag_102\n      swap2\n      swap1\n      tag_71\n      jump\t// in\n    tag_102:\n      swap3\n      pop\n      pop\n      dup2\n      swap1\n      sstore\n      pop\n        /* \"tricotContract.sol\":970:1339  if (_quantity > 0) {... */\n      jump(tag_103)\n    tag_97:\n        /* \"tricotContract.sol\":1163:1184  uint quantityToRemove */\n      0x00\n        /* \"tricotContract.sol\":1193:1202  _quantity */\n      dup2\n        /* \"tricotContract.sol\":1192:1202  -_quantity */\n      tag_104\n      swap1\n      tag_105\n      jump\t// in\n    tag_104:\n        /* \"tricotContract.sol\":1163:1203  uint quantityToRemove = uint(-_quantity) */\n      swap1\n      pop\n        /* \"tricotContract.sol\":1240:1256  quantityToRemove */\n      dup1\n        /* \"tricotContract.sol\":1225:1236  tricotStock */\n      sload(0x01)\n        /* \"tricotContract.sol\":1225:1256  tricotStock >= quantityToRemove */\n      lt\n      iszero\n        /* \"tricotContract.sol\":1218:1257  assert(tricotStock >= quantityToRemove) */\n      tag_106\n      jumpi\n      tag_107\n      tag_108\n      jump\t// in\n    tag_107:\n    tag_106:\n        /* \"tricotContract.sol\":1311:1327  quantityToRemove */\n      dup1\n        /* \"tricotContract.sol\":1296:1307  tricotStock */\n      0x01\n      0x00\n        /* \"tricotContract.sol\":1296:1327  tricotStock -= quantityToRemove */\n      dup3\n      dup3\n      sload\n      tag_109\n      swap2\n      swap1\n      tag_76\n      jump\t// in\n    tag_109:\n      swap3\n      pop\n      pop\n      dup2\n      swap1\n      sstore\n      pop\n        /* \"tricotContract.sol\":1148:1339  {... */\n      pop\n        /* \"tricotContract.sol\":970:1339  if (_quantity > 0) {... */\n    tag_103:\n        /* \"tricotContract.sol\":900:1346  function modifyTricotStock(int _quantity) public onlyOwner {... */\n      pop\n      jump\t// out\n        /* \"#utility.yul\":7:84   */\n    tag_110:\n        /* \"#utility.yul\":44:51   */\n      0x00\n        /* \"#utility.yul\":73:78   */\n      dup2\n        /* \"#utility.yul\":62:78   */\n      swap1\n      pop\n        /* \"#utility.yul\":7:84   */\n      swap2\n      swap1\n      pop\n      jump\t// out\n        /* \"#utility.yul\":90:208   */\n    tag_111:\n        /* \"#utility.yul\":177:201   */\n      tag_146\n        /* \"#utility.yul\":195:200   */\n      dup2\n        /* \"#utility.yul\":177:201   */\n      tag_110\n      jump\t// in\n    tag_146:\n        /* \"#utility.yul\":172:175   */\n      dup3\n        /* \"#utility.yul\":165:202   */\n      mstore\n        /* \"#utility.yul\":90:208   */\n      pop\n      pop\n      jump\t// out\n        /* \"#utility.yul\":214:436   */\n    tag_17:\n        /* \"#utility.yul\":307:311   */\n      0x00\n        /* \"#utility.yul\":345:347   */\n      0x20\n        /* \"#utility.yul\":334:343   */\n      dup3\n        /* \"#utility.yul\":330:348   */\n      add\n        /* \"#utility.yul\":322:348   */\n      swap1\n      pop\n        /* \"#utility.yul\":358:429   */\n      tag_148\n        /* \"#utility.yul\":426:427   */\n      0x00\n        /* \"#utility.yul\":415:424   */\n      dup4\n        /* \"#utility.yul\":411:428   */\n      add\n        /* \"#utility.yul\":402:408   */\n      dup5\n        /* \"#utility.yul\":358:429   */\n      tag_111\n      jump\t// in\n    tag_148:\n        /* \"#utility.yul\":214:436   */\n      swap3\n      swap2\n      pop\n      pop\n      jump\t// out\n        /* \"#utility.yul\":523:640   */\n    tag_113:\n        /* \"#utility.yul\":632:633   */\n      0x00\n        /* \"#utility.yul\":629:630   */\n      dup1\n        /* \"#utility.yul\":622:634   */\n      revert\n        /* \"#utility.yul\":769:891   */\n    tag_115:\n        /* \"#utility.yul\":842:866   */\n      tag_153\n        /* \"#utility.yul\":860:865   */\n      dup2\n        /* \"#utility.yul\":842:866   */\n      tag_110\n      jump\t// in\n    tag_153:\n        /* \"#utility.yul\":835:840   */\n      dup2\n        /* \"#utility.yul\":832:867   */\n      eq\n        /* \"#utility.yul\":822:885   */\n      tag_154\n      jumpi\n        /* \"#utility.yul\":881:882   */\n      0x00\n        /* \"#utility.yul\":878:879   */\n      dup1\n        /* \"#utility.yul\":871:883   */\n      revert\n        /* \"#utility.yul\":822:885   */\n    tag_154:\n        /* \"#utility.yul\":769:891   */\n      pop\n      jump\t// out\n        /* \"#utility.yul\":897:1036   */\n    tag_116:\n        /* \"#utility.yul\":943:948   */\n      0x00\n        /* \"#utility.yul\":981:987   */\n      dup2\n        /* \"#utility.yul\":968:988   */\n      calldataload\n        /* \"#utility.yul\":959:988   */\n      swap1\n      pop\n        /* \"#utility.yul\":997:1030   */\n      tag_156\n        /* \"#utility.yul\":1024:1029   */\n      dup2\n        /* \"#utility.yul\":997:1030   */\n      tag_115\n      jump\t// in\n    tag_156:\n        /* \"#utility.yul\":897:1036   */\n      swap3\n      swap2\n      pop\n      pop\n      jump\t// out\n        /* \"#utility.yul\":1042:1371   */\n    tag_24:\n        /* \"#utility.yul\":1101:1107   */\n      0x00\n        /* \"#utility.yul\":1150:1152   */\n      0x20\n        /* \"#utility.yul\":1138:1147   */\n      dup3\n        /* \"#utility.yul\":1129:1136   */\n      dup5\n        /* \"#utility.yul\":1125:1148   */\n      sub\n        /* \"#utility.yul\":1121:1153   */\n      slt\n        /* \"#utility.yul\":1118:1237   */\n      iszero\n      tag_158\n      jumpi\n        /* \"#utility.yul\":1156:1235   */\n      tag_159\n      tag_113\n      jump\t// in\n    tag_159:\n        /* \"#utility.yul\":1118:1237   */\n    tag_158:\n        /* \"#utility.yul\":1276:1277   */\n      0x00\n        /* \"#utility.yul\":1301:1354   */\n      tag_160\n        /* \"#utility.yul\":1346:1353   */\n      dup5\n        /* \"#utility.yul\":1337:1343   */\n      dup3\n        /* \"#utility.yul\":1326:1335   */\n      dup6\n        /* \"#utility.yul\":1322:1344   */\n      add\n        /* \"#utility.yul\":1301:1354   */\n      tag_116\n      jump\t// in\n    tag_160:\n        /* \"#utility.yul\":1291:1354   */\n      swap2\n      pop\n        /* \"#utility.yul\":1247:1364   */\n      pop\n        /* \"#utility.yul\":1042:1371   */\n      swap3\n      swap2\n      pop\n      pop\n      jump\t// out\n        /* \"#utility.yul\":1377:1503   */\n    tag_117:\n        /* \"#utility.yul\":1414:1421   */\n      0x00\n        /* \"#utility.yul\":1454:1496   */\n      0xffffffffffffffffffffffffffffffffffffffff\n        /* \"#utility.yul\":1447:1452   */\n      dup3\n        /* \"#utility.yul\":1443:1497   */\n      and\n        /* \"#utility.yul\":1432:1497   */\n      swap1\n      pop\n        /* \"#utility.yul\":1377:1503   */\n      swap2\n      swap1\n      pop\n      jump\t// out\n        /* \"#utility.yul\":1509:1605   */\n    tag_118:\n        /* \"#utility.yul\":1546:1553   */\n      0x00\n        /* \"#utility.yul\":1575:1599   */\n      tag_163\n        /* \"#utility.yul\":1593:1598   */\n      dup3\n        /* \"#utility.yul\":1575:1599   */\n      tag_117\n      jump\t// in\n    tag_163:\n        /* \"#utility.yul\":1564:1599   */\n      swap1\n      pop\n        /* \"#utility.yul\":1509:1605   */\n      swap2\n      swap1\n      pop\n      jump\t// out\n        /* \"#utility.yul\":1611:1729   */\n    tag_119:\n        /* \"#utility.yul\":1698:1722   */\n      tag_165\n        /* \"#utility.yul\":1716:1721   */\n      dup2\n        /* \"#utility.yul\":1698:1722   */\n      tag_118\n      jump\t// in\n    tag_165:\n        /* \"#utility.yul\":1693:1696   */\n      dup3\n        /* \"#utility.yul\":1686:1723   */\n      mstore\n        /* \"#utility.yul\":1611:1729   */\n      pop\n      pop\n      jump\t// out\n        /* \"#utility.yul\":1735:1957   */\n    tag_34:\n        /* \"#utility.yul\":1828:1832   */\n      0x00\n        /* \"#utility.yul\":1866:1868   */\n      0x20\n        /* \"#utility.yul\":1855:1864   */\n      dup3\n        /* \"#utility.yul\":1851:1869   */\n      add\n        /* \"#utility.yul\":1843:1869   */\n      swap1\n      pop\n        /* \"#utility.yul\":1879:1950   */\n      tag_167\n        /* \"#utility.yul\":1947:1948   */\n      0x00\n        /* \"#utility.yul\":1936:1945   */\n      dup4\n        /* \"#utility.yul\":1932:1949   */\n      add\n        /* \"#utility.yul\":1923:1929   */\n      dup5\n        /* \"#utility.yul\":1879:1950   */\n      tag_119\n      jump\t// in\n    tag_167:\n        /* \"#utility.yul\":1735:1957   */\n      swap3\n      swap2\n      pop\n      pop\n      jump\t// out\n        /* \"#utility.yul\":1963:2085   */\n    tag_120:\n        /* \"#utility.yul\":2036:2060   */\n      tag_169\n        /* \"#utility.yul\":2054:2059   */\n      dup2\n        /* \"#utility.yul\":2036:2060   */\n      tag_118\n      jump\t// in\n    tag_169:\n        /* \"#utility.yul\":2029:2034   */\n      dup2\n        /* \"#utility.yul\":2026:2061   */\n      eq\n        /* \"#utility.yul\":2016:2079   */\n      tag_170\n      jumpi\n        /* \"#utility.yul\":2075:2076   */\n      0x00\n        /* \"#utility.yul\":2072:2073   */\n      dup1\n        /* \"#utility.yul\":2065:2077   */\n      revert\n        /* \"#utility.yul\":2016:2079   */\n    tag_170:\n        /* \"#utility.yul\":1963:2085   */\n      pop\n      jump\t// out\n        /* \"#utility.yul\":2091:2230   */\n    tag_121:\n        /* \"#utility.yul\":2137:2142   */\n      0x00\n        /* \"#utility.yul\":2175:2181   */\n      dup2\n        /* \"#utility.yul\":2162:2182   */\n      calldataload\n        /* \"#utility.yul\":2153:2182   */\n      swap1\n      pop\n        /* \"#utility.yul\":2191:2224   */\n      tag_172\n        /* \"#utility.yul\":2218:2223   */\n      dup2\n        /* \"#utility.yul\":2191:2224   */\n      tag_120\n      jump\t// in\n    tag_172:\n        /* \"#utility.yul\":2091:2230   */\n      swap3\n      swap2\n      pop\n      pop\n      jump\t// out\n        /* \"#utility.yul\":2236:2565   */\n    tag_42:\n        /* \"#utility.yul\":2295:2301   */\n      0x00\n        /* \"#utility.yul\":2344:2346   */\n      0x20\n        /* \"#utility.yul\":2332:2341   */\n      dup3\n        /* \"#utility.yul\":2323:2330   */\n      dup5\n        /* \"#utility.yul\":2319:2342   */\n      sub\n        /* \"#utility.yul\":2315:2347   */\n      slt\n        /* \"#utility.yul\":2312:2431   */\n      iszero\n      tag_174\n      jumpi\n        /* \"#utility.yul\":2350:2429   */\n      tag_175\n      tag_113\n      jump\t// in\n    tag_175:\n        /* \"#utility.yul\":2312:2431   */\n    tag_174:\n        /* \"#utility.yul\":2470:2471   */\n      0x00\n        /* \"#utility.yul\":2495:2548   */\n      tag_176\n        /* \"#utility.yul\":2540:2547   */\n      dup5\n        /* \"#utility.yul\":2531:2537   */\n      dup3\n        /* \"#utility.yul\":2520:2529   */\n      dup6\n        /* \"#utility.yul\":2516:2538   */\n      add\n        /* \"#utility.yul\":2495:2548   */\n      tag_121\n      jump\t// in\n    tag_176:\n        /* \"#utility.yul\":2485:2548   */\n      swap2\n      pop\n        /* \"#utility.yul\":2441:2558   */\n      pop\n        /* \"#utility.yul\":2236:2565   */\n      swap3\n      swap2\n      pop\n      pop\n      jump\t// out\n        /* \"#utility.yul\":2571:2647   */\n    tag_122:\n        /* \"#utility.yul\":2607:2614   */\n      0x00\n        /* \"#utility.yul\":2636:2641   */\n      dup2\n        /* \"#utility.yul\":2625:2641   */\n      swap1\n      pop\n        /* \"#utility.yul\":2571:2647   */\n      swap2\n      swap1\n      pop\n      jump\t// out\n        /* \"#utility.yul\":2653:2773   */\n    tag_123:\n        /* \"#utility.yul\":2725:2748   */\n      tag_179\n        /* \"#utility.yul\":2742:2747   */\n      dup2\n        /* \"#utility.yul\":2725:2748   */\n      tag_122\n      jump\t// in\n    tag_179:\n        /* \"#utility.yul\":2718:2723   */\n      dup2\n        /* \"#utility.yul\":2715:2749   */\n      eq\n        /* \"#utility.yul\":2705:2767   */\n      tag_180\n      jumpi\n        /* \"#utility.yul\":2763:2764   */\n      0x00\n        /* \"#utility.yul\":2760:2761   */\n      dup1\n        /* \"#utility.yul\":2753:2765   */\n      revert\n        /* \"#utility.yul\":2705:2767   */\n    tag_180:\n        /* \"#utility.yul\":2653:2773   */\n      pop\n      jump\t// out\n        /* \"#utility.yul\":2779:2916   */\n    tag_124:\n        /* \"#utility.yul\":2824:2829   */\n      0x00\n        /* \"#utility.yul\":2862:2868   */\n      dup2\n        /* \"#utility.yul\":2849:2869   */\n      calldataload\n        /* \"#utility.yul\":2840:2869   */\n      swap1\n      pop\n        /* \"#utility.yul\":2878:2910   */\n      tag_182\n        /* \"#utility.yul\":2904:2909   */\n      dup2\n        /* \"#utility.yul\":2878:2910   */\n      tag_123\n      jump\t// in\n    tag_182:\n        /* \"#utility.yul\":2779:2916   */\n      swap3\n      swap2\n      pop\n      pop\n      jump\t// out\n        /* \"#utility.yul\":2922:3249   */\n    tag_56:\n        /* \"#utility.yul\":2980:2986   */\n      0x00\n        /* \"#utility.yul\":3029:3031   */\n      0x20\n        /* \"#utility.yul\":3017:3026   */\n      dup3\n        /* \"#utility.yul\":3008:3015   */\n      dup5\n        /* \"#utility.yul\":3004:3027   */\n      sub\n        /* \"#utility.yul\":3000:3032   */\n      slt\n        /* \"#utility.yul\":2997:3116   */\n      iszero\n      tag_184\n      jumpi\n        /* \"#utility.yul\":3035:3114   */\n      tag_185\n      tag_113\n      jump\t// in\n    tag_185:\n        /* \"#utility.yul\":2997:3116   */\n    tag_184:\n        /* \"#utility.yul\":3155:3156   */\n      0x00\n        /* \"#utility.yul\":3180:3232   */\n      tag_186\n        /* \"#utility.yul\":3224:3231   */\n      dup5\n        /* \"#utility.yul\":3215:3221   */\n      dup3\n        /* \"#utility.yul\":3204:3213   */\n      dup6\n        /* \"#utility.yul\":3200:3222   */\n      add\n        /* \"#utility.yul\":3180:3232   */\n      tag_124\n      jump\t// in\n    tag_186:\n        /* \"#utility.yul\":3170:3232   */\n      swap2\n      pop\n        /* \"#utility.yul\":3126:3242   */\n      pop\n        /* \"#utility.yul\":2922:3249   */\n      swap3\n      swap2\n      pop\n      pop\n      jump\t// out\n        /* \"#utility.yul\":3255:3435   */\n    tag_125:\n        /* \"#utility.yul\":3303:3380   */\n      0x4e487b7100000000000000000000000000000000000000000000000000000000\n        /* \"#utility.yul\":3300:3301   */\n      0x00\n        /* \"#utility.yul\":3293:3381   */\n      mstore\n        /* \"#utility.yul\":3400:3404   */\n      0x11\n        /* \"#utility.yul\":3397:3398   */\n      0x04\n        /* \"#utility.yul\":3390:3405   */\n      mstore\n        /* \"#utility.yul\":3424:3428   */\n      0x24\n        /* \"#utility.yul\":3421:3422   */\n      0x00\n        /* \"#utility.yul\":3414:3429   */\n      revert\n        /* \"#utility.yul\":3441:3851   */\n    tag_60:\n        /* \"#utility.yul\":3481:3488   */\n      0x00\n        /* \"#utility.yul\":3504:3524   */\n      tag_189\n        /* \"#utility.yul\":3522:3523   */\n      dup3\n        /* \"#utility.yul\":3504:3524   */\n      tag_110\n      jump\t// in\n    tag_189:\n        /* \"#utility.yul\":3499:3524   */\n      swap2\n      pop\n        /* \"#utility.yul\":3538:3558   */\n      tag_190\n        /* \"#utility.yul\":3556:3557   */\n      dup4\n        /* \"#utility.yul\":3538:3558   */\n      tag_110\n      jump\t// in\n    tag_190:\n        /* \"#utility.yul\":3533:3558   */\n      swap3\n      pop\n        /* \"#utility.yul\":3593:3594   */\n      dup3\n        /* \"#utility.yul\":3590:3591   */\n      dup3\n        /* \"#utility.yul\":3586:3595   */\n      mul\n        /* \"#utility.yul\":3615:3645   */\n      tag_191\n        /* \"#utility.yul\":3633:3644   */\n      dup2\n        /* \"#utility.yul\":3615:3645   */\n      tag_110\n      jump\t// in\n    tag_191:\n        /* \"#utility.yul\":3604:3645   */\n      swap2\n      pop\n        /* \"#utility.yul\":3794:3795   */\n      dup3\n        /* \"#utility.yul\":3785:3792   */\n      dup3\n        /* \"#utility.yul\":3781:3796   */\n      div\n        /* \"#utility.yul\":3778:3779   */\n      dup5\n        /* \"#utility.yul\":3775:3797   */\n      eq\n        /* \"#utility.yul\":3755:3756   */\n      dup4\n        /* \"#utility.yul\":3748:3757   */\n      iszero\n        /* \"#utility.yul\":3728:3811   */\n      or\n        /* \"#utility.yul\":3705:3844   */\n      tag_192\n      jumpi\n        /* \"#utility.yul\":3824:3842   */\n      tag_193\n      tag_125\n      jump\t// in\n    tag_193:\n        /* \"#utility.yul\":3705:3844   */\n    tag_192:\n        /* \"#utility.yul\":3489:3851   */\n      pop\n        /* \"#utility.yul\":3441:3851   */\n      swap3\n      swap2\n      pop\n      pop\n      jump\t// out\n        /* \"#utility.yul\":3857:4026   */\n    tag_126:\n        /* \"#utility.yul\":3941:3952   */\n      0x00\n        /* \"#utility.yul\":3975:3981   */\n      dup3\n        /* \"#utility.yul\":3970:3973   */\n      dup3\n        /* \"#utility.yul\":3963:3982   */\n      mstore\n        /* \"#utility.yul\":4015:4019   */\n      0x20\n        /* \"#utility.yul\":4010:4013   */\n      dup3\n        /* \"#utility.yul\":4006:4020   */\n      add\n        /* \"#utility.yul\":3991:4020   */\n      swap1\n      pop\n        /* \"#utility.yul\":3857:4026   */\n      swap3\n      swap2\n      pop\n      pop\n      jump\t// out\n        /* \"#utility.yul\":4032:4202   */\n    tag_127:\n        /* \"#utility.yul\":4172:4194   */\n      0x496e73756666696369656e74207061796d656e74000000000000000000000000\n        /* \"#utility.yul\":4168:4169   */\n      0x00\n        /* \"#utility.yul\":4160:4166   */\n      dup3\n        /* \"#utility.yul\":4156:4170   */\n      add\n        /* \"#utility.yul\":4149:4195   */\n      mstore\n        /* \"#utility.yul\":4032:4202   */\n      pop\n      jump\t// out\n        /* \"#utility.yul\":4208:4574   */\n    tag_128:\n        /* \"#utility.yul\":4350:4353   */\n      0x00\n        /* \"#utility.yul\":4371:4438   */\n      tag_197\n        /* \"#utility.yul\":4435:4437   */\n      0x14\n        /* \"#utility.yul\":4430:4433   */\n      dup4\n        /* \"#utility.yul\":4371:4438   */\n      tag_126\n      jump\t// in\n    tag_197:\n        /* \"#utility.yul\":4364:4438   */\n      swap2\n      pop\n        /* \"#utility.yul\":4447:4540   */\n      tag_198\n        /* \"#utility.yul\":4536:4539   */\n      dup3\n        /* \"#utility.yul\":4447:4540   */\n      tag_127\n      jump\t// in\n    tag_198:\n        /* \"#utility.yul\":4565:4567   */\n      0x20\n        /* \"#utility.yul\":4560:4563   */\n      dup3\n        /* \"#utility.yul\":4556:4568   */\n      add\n        /* \"#utility.yul\":4549:4568   */\n      swap1\n      pop\n        /* \"#utility.yul\":4208:4574   */\n      swap2\n      swap1\n      pop\n      jump\t// out\n        /* \"#utility.yul\":4580:4999   */\n    tag_63:\n        /* \"#utility.yul\":4746:4750   */\n      0x00\n        /* \"#utility.yul\":4784:4786   */\n      0x20\n        /* \"#utility.yul\":4773:4782   */\n      dup3\n        /* \"#utility.yul\":4769:4787   */\n      add\n        /* \"#utility.yul\":4761:4787   */\n      swap1\n      pop\n        /* \"#utility.yul\":4833:4842   */\n      dup2\n        /* \"#utility.yul\":4827:4831   */\n      dup2\n        /* \"#utility.yul\":4823:4843   */\n      sub\n        /* \"#utility.yul\":4819:4820   */\n      0x00\n        /* \"#utility.yul\":4808:4817   */\n      dup4\n        /* \"#utility.yul\":4804:4821   */\n      add\n        /* \"#utility.yul\":4797:4844   */\n      mstore\n        /* \"#utility.yul\":4861:4992   */\n      tag_200\n        /* \"#utility.yul\":4987:4991   */\n      dup2\n        /* \"#utility.yul\":4861:4992   */\n      tag_128\n      jump\t// in\n    tag_200:\n        /* \"#utility.yul\":4853:4992   */\n      swap1\n      pop\n        /* \"#utility.yul\":4580:4999   */\n      swap2\n      swap1\n      pop\n      jump\t// out\n        /* \"#utility.yul\":5005:5186   */\n    tag_129:\n        /* \"#utility.yul\":5145:5178   */\n      0x4d757374207075726368617365206174206c65617374203120547269636f7400\n        /* \"#utility.yul\":5141:5142   */\n      0x00\n        /* \"#utility.yul\":5133:5139   */\n      dup3\n        /* \"#utility.yul\":5129:5143   */\n      add\n        /* \"#utility.yul\":5122:5179   */\n      mstore\n        /* \"#utility.yul\":5005:5186   */\n      pop\n      jump\t// out\n        /* \"#utility.yul\":5192:5558   */\n    tag_130:\n        /* \"#utility.yul\":5334:5337   */\n      0x00\n        /* \"#utility.yul\":5355:5422   */\n      tag_203\n        /* \"#utility.yul\":5419:5421   */\n      0x1f\n        /* \"#utility.yul\":5414:5417   */\n      dup4\n        /* \"#utility.yul\":5355:5422   */\n      tag_126\n      jump\t// in\n    tag_203:\n        /* \"#utility.yul\":5348:5422   */\n      swap2\n      pop\n        /* \"#utility.yul\":5431:5524   */\n      tag_204\n        /* \"#utility.yul\":5520:5523   */\n      dup3\n        /* \"#utility.yul\":5431:5524   */\n      tag_129\n      jump\t// in\n    tag_204:\n        /* \"#utility.yul\":5549:5551   */\n      0x20\n        /* \"#utility.yul\":5544:5547   */\n      dup3\n        /* \"#utility.yul\":5540:5552   */\n      add\n        /* \"#utility.yul\":5533:5552   */\n      swap1\n      pop\n        /* \"#utility.yul\":5192:5558   */\n      swap2\n      swap1\n      pop\n      jump\t// out\n        /* \"#utility.yul\":5564:5983   */\n    tag_66:\n        /* \"#utility.yul\":5730:5734   */\n      0x00\n        /* \"#utility.yul\":5768:5770   */\n      0x20\n        /* \"#utility.yul\":5757:5766   */\n      dup3\n        /* \"#utility.yul\":5753:5771   */\n      add\n        /* \"#utility.yul\":5745:5771   */\n      swap1\n      pop\n        /* \"#utility.yul\":5817:5826   */\n      dup2\n        /* \"#utility.yul\":5811:5815   */\n      dup2\n        /* \"#utility.yul\":5807:5827   */\n      sub\n        /* \"#utility.yul\":5803:5804   */\n      0x00\n        /* \"#utility.yul\":5792:5801   */\n      dup4\n        /* \"#utility.yul\":5788:5805   */\n      add\n        /* \"#utility.yul\":5781:5828   */\n      mstore\n        /* \"#utility.yul\":5845:5976   */\n      tag_206\n        /* \"#utility.yul\":5971:5975   */\n      dup2\n        /* \"#utility.yul\":5845:5976   */\n      tag_130\n      jump\t// in\n    tag_206:\n        /* \"#utility.yul\":5837:5976   */\n      swap1\n      pop\n        /* \"#utility.yul\":5564:5983   */\n      swap2\n      swap1\n      pop\n      jump\t// out\n        /* \"#utility.yul\":5989:6165   */\n    tag_131:\n        /* \"#utility.yul\":6129:6157   */\n      0x4e6f7420656e6f7567682073746f636b20617661696c61626c65000000000000\n        /* \"#utility.yul\":6125:6126   */\n      0x00\n        /* \"#utility.yul\":6117:6123   */\n      dup3\n        /* \"#utility.yul\":6113:6127   */\n      add\n        /* \"#utility.yul\":6106:6158   */\n      mstore\n        /* \"#utility.yul\":5989:6165   */\n      pop\n      jump\t// out\n        /* \"#utility.yul\":6171:6537   */\n    tag_132:\n        /* \"#utility.yul\":6313:6316   */\n      0x00\n        /* \"#utility.yul\":6334:6401   */\n      tag_209\n        /* \"#utility.yul\":6398:6400   */\n      0x1a\n        /* \"#utility.yul\":6393:6396   */\n      dup4\n        /* \"#utility.yul\":6334:6401   */\n      tag_126\n      jump\t// in\n    tag_209:\n        /* \"#utility.yul\":6327:6401   */\n      swap2\n      pop\n        /* \"#utility.yul\":6410:6503   */\n      tag_210\n        /* \"#utility.yul\":6499:6502   */\n      dup3\n        /* \"#utility.yul\":6410:6503   */\n      tag_131\n      jump\t// in\n    tag_210:\n        /* \"#utility.yul\":6528:6530   */\n      0x20\n        /* \"#utility.yul\":6523:6526   */\n      dup3\n        /* \"#utility.yul\":6519:6531   */\n      add\n        /* \"#utility.yul\":6512:6531   */\n      swap1\n      pop\n        /* \"#utility.yul\":6171:6537   */\n      swap2\n      swap1\n      pop\n      jump\t// out\n        /* \"#utility.yul\":6543:6962   */\n    tag_69:\n        /* \"#utility.yul\":6709:6713   */\n      0x00\n        /* \"#utility.yul\":6747:6749   */\n      0x20\n        /* \"#utility.yul\":6736:6745   */\n      dup3\n        /* \"#utility.yul\":6732:6750   */\n      add\n        /* \"#utility.yul\":6724:6750   */\n      swap1\n      pop\n        /* \"#utility.yul\":6796:6805   */\n      dup2\n        /* \"#utility.yul\":6790:6794   */\n      dup2\n        /* \"#utility.yul\":6786:6806   */\n      sub\n        /* \"#utility.yul\":6782:6783   */\n      0x00\n        /* \"#utility.yul\":6771:6780   */\n      dup4\n        /* \"#utility.yul\":6767:6784   */\n      add\n        /* \"#utility.yul\":6760:6807   */\n      mstore\n        /* \"#utility.yul\":6824:6955   */\n      tag_212\n        /* \"#utility.yul\":6950:6954   */\n      dup2\n        /* \"#utility.yul\":6824:6955   */\n      tag_132\n      jump\t// in\n    tag_212:\n        /* \"#utility.yul\":6816:6955   */\n      swap1\n      pop\n        /* \"#utility.yul\":6543:6962   */\n      swap2\n      swap1\n      pop\n      jump\t// out\n        /* \"#utility.yul\":6968:7159   */\n    tag_71:\n        /* \"#utility.yul\":7008:7011   */\n      0x00\n        /* \"#utility.yul\":7027:7047   */\n      tag_214\n        /* \"#utility.yul\":7045:7046   */\n      dup3\n        /* \"#utility.yul\":7027:7047   */\n      tag_110\n      jump\t// in\n    tag_214:\n        /* \"#utility.yul\":7022:7047   */\n      swap2\n      pop\n        /* \"#utility.yul\":7061:7081   */\n      tag_215\n        /* \"#utility.yul\":7079:7080   */\n      dup4\n        /* \"#utility.yul\":7061:7081   */\n      tag_110\n      jump\t// in\n    tag_215:\n        /* \"#utility.yul\":7056:7081   */\n      swap3\n      pop\n        /* \"#utility.yul\":7104:7105   */\n      dup3\n        /* \"#utility.yul\":7101:7102   */\n      dup3\n        /* \"#utility.yul\":7097:7106   */\n      add\n        /* \"#utility.yul\":7090:7106   */\n      swap1\n      pop\n        /* \"#utility.yul\":7125:7128   */\n      dup1\n        /* \"#utility.yul\":7122:7123   */\n      dup3\n        /* \"#utility.yul\":7119:7129   */\n      gt\n        /* \"#utility.yul\":7116:7152   */\n      iszero\n      tag_216\n      jumpi\n        /* \"#utility.yul\":7132:7150   */\n      tag_217\n      tag_125\n      jump\t// in\n    tag_217:\n        /* \"#utility.yul\":7116:7152   */\n    tag_216:\n        /* \"#utility.yul\":6968:7159   */\n      swap3\n      swap2\n      pop\n      pop\n      jump\t// out\n        /* \"#utility.yul\":7165:7335   */\n    tag_133:\n        /* \"#utility.yul\":7305:7327   */\n      0x4f776e6564206c696d6974206578636565646564000000000000000000000000\n        /* \"#utility.yul\":7301:7302   */\n      0x00\n        /* \"#utility.yul\":7293:7299   */\n      dup3\n        /* \"#utility.yul\":7289:7303   */\n      add\n        /* \"#utility.yul\":7282:7328   */\n      mstore\n        /* \"#utility.yul\":7165:7335   */\n      pop\n      jump\t// out\n        /* \"#utility.yul\":7341:7707   */\n    tag_134:\n        /* \"#utility.yul\":7483:7486   */\n      0x00\n        /* \"#utility.yul\":7504:7571   */\n      tag_220\n        /* \"#utility.yul\":7568:7570   */\n      0x14\n        /* \"#utility.yul\":7563:7566   */\n      dup4\n        /* \"#utility.yul\":7504:7571   */\n      tag_126\n      jump\t// in\n    tag_220:\n        /* \"#utility.yul\":7497:7571   */\n      swap2\n      pop\n        /* \"#utility.yul\":7580:7673   */\n      tag_221\n        /* \"#utility.yul\":7669:7672   */\n      dup3\n        /* \"#utility.yul\":7580:7673   */\n      tag_133\n      jump\t// in\n    tag_221:\n        /* \"#utility.yul\":7698:7700   */\n      0x20\n        /* \"#utility.yul\":7693:7696   */\n      dup3\n        /* \"#utility.yul\":7689:7701   */\n      add\n        /* \"#utility.yul\":7682:7701   */\n      swap1\n      pop\n        /* \"#utility.yul\":7341:7707   */\n      swap2\n      swap1\n      pop\n      jump\t// out\n        /* \"#utility.yul\":7713:8132   */\n    tag_74:\n        /* \"#utility.yul\":7879:7883   */\n      0x00\n        /* \"#utility.yul\":7917:7919   */\n      0x20\n        /* \"#utility.yul\":7906:7915   */\n      dup3\n        /* \"#utility.yul\":7902:7920   */\n      add\n        /* \"#utility.yul\":7894:7920   */\n      swap1\n      pop\n        /* \"#utility.yul\":7966:7975   */\n      dup2\n        /* \"#utility.yul\":7960:7964   */\n      dup2\n        /* \"#utility.yul\":7956:7976   */\n      sub\n        /* \"#utility.yul\":7952:7953   */\n      0x00\n        /* \"#utility.yul\":7941:7950   */\n      dup4\n        /* \"#utility.yul\":7937:7954   */\n      add\n        /* \"#utility.yul\":7930:7977   */\n      mstore\n        /* \"#utility.yul\":7994:8125   */\n      tag_223\n        /* \"#utility.yul\":8120:8124   */\n      dup2\n        /* \"#utility.yul\":7994:8125   */\n      tag_134\n      jump\t// in\n    tag_223:\n        /* \"#utility.yul\":7986:8125   */\n      swap1\n      pop\n        /* \"#utility.yul\":7713:8132   */\n      swap2\n      swap1\n      pop\n      jump\t// out\n        /* \"#utility.yul\":8138:8332   */\n    tag_76:\n        /* \"#utility.yul\":8178:8182   */\n      0x00\n        /* \"#utility.yul\":8198:8218   */\n      tag_225\n        /* \"#utility.yul\":8216:8217   */\n      dup3\n        /* \"#utility.yul\":8198:8218   */\n      tag_110\n      jump\t// in\n    tag_225:\n        /* \"#utility.yul\":8193:8218   */\n      swap2\n      pop\n        /* \"#utility.yul\":8232:8252   */\n      tag_226\n        /* \"#utility.yul\":8250:8251   */\n      dup4\n        /* \"#utility.yul\":8232:8252   */\n      tag_110\n      jump\t// in\n    tag_226:\n        /* \"#utility.yul\":8227:8252   */\n      swap3\n      pop\n        /* \"#utility.yul\":8276:8277   */\n      dup3\n        /* \"#utility.yul\":8273:8274   */\n      dup3\n        /* \"#utility.yul\":8269:8278   */\n      sub\n        /* \"#utility.yul\":8261:8278   */\n      swap1\n      pop\n        /* \"#utility.yul\":8300:8301   */\n      dup2\n        /* \"#utility.yul\":8294:8298   */\n      dup2\n        /* \"#utility.yul\":8291:8302   */\n      gt\n        /* \"#utility.yul\":8288:8325   */\n      iszero\n      tag_227\n      jumpi\n        /* \"#utility.yul\":8305:8323   */\n      tag_228\n      tag_125\n      jump\t// in\n    tag_228:\n        /* \"#utility.yul\":8288:8325   */\n    tag_227:\n        /* \"#utility.yul\":8138:8332   */\n      swap3\n      swap2\n      pop\n      pop\n      jump\t// out\n        /* \"#utility.yul\":8338:8563   */\n    tag_135:\n        /* \"#utility.yul\":8478:8512   */\n      0x4f6e6c7920746865206f776e65722063616e20706572666f726d207468697320\n        /* \"#utility.yul\":8474:8475   */\n      0x00\n        /* \"#utility.yul\":8466:8472   */\n      dup3\n        /* \"#utility.yul\":8462:8476   */\n      add\n        /* \"#utility.yul\":8455:8513   */\n      mstore\n        /* \"#utility.yul\":8547:8555   */\n      0x616374696f6e0000000000000000000000000000000000000000000000000000\n        /* \"#utility.yul\":8542:8544   */\n      0x20\n        /* \"#utility.yul\":8534:8540   */\n      dup3\n        /* \"#utility.yul\":8530:8545   */\n      add\n        /* \"#utility.yul\":8523:8556   */\n      mstore\n        /* \"#utility.yul\":8338:8563   */\n      pop\n      jump\t// out\n        /* \"#utility.yul\":8569:8935   */\n    tag_136:\n        /* \"#utility.yul\":8711:8714   */\n      0x00\n        /* \"#utility.yul\":8732:8799   */\n      tag_231\n        /* \"#utility.yul\":8796:8798   */\n      0x26\n        /* \"#utility.yul\":8791:8794   */\n      dup4\n        /* \"#utility.yul\":8732:8799   */\n      tag_126\n      jump\t// in\n    tag_231:\n        /* \"#utility.yul\":8725:8799   */\n      swap2\n      pop\n        /* \"#utility.yul\":8808:8901   */\n      tag_232\n        /* \"#utility.yul\":8897:8900   */\n      dup3\n        /* \"#utility.yul\":8808:8901   */\n      tag_135\n      jump\t// in\n    tag_232:\n        /* \"#utility.yul\":8926:8928   */\n      0x40\n        /* \"#utility.yul\":8921:8924   */\n      dup3\n        /* \"#utility.yul\":8917:8929   */\n      add\n        /* \"#utility.yul\":8910:8929   */\n      swap1\n      pop\n        /* \"#utility.yul\":8569:8935   */\n      swap2\n      swap1\n      pop\n      jump\t// out\n        /* \"#utility.yul\":8941:9360   */\n    tag_81:\n        /* \"#utility.yul\":9107:9111   */\n      0x00\n        /* \"#utility.yul\":9145:9147   */\n      0x20\n        /* \"#utility.yul\":9134:9143   */\n      dup3\n        /* \"#utility.yul\":9130:9148   */\n      add\n        /* \"#utility.yul\":9122:9148   */\n      swap1\n      pop\n        /* \"#utility.yul\":9194:9203   */\n      dup2\n        /* \"#utility.yul\":9188:9192   */\n      dup2\n        /* \"#utility.yul\":9184:9204   */\n      sub\n        /* \"#utility.yul\":9180:9181   */\n      0x00\n        /* \"#utility.yul\":9169:9178   */\n      dup4\n        /* \"#utility.yul\":9165:9182   */\n      add\n        /* \"#utility.yul\":9158:9205   */\n      mstore\n        /* \"#utility.yul\":9222:9353   */\n      tag_234\n        /* \"#utility.yul\":9348:9352   */\n      dup2\n        /* \"#utility.yul\":9222:9353   */\n      tag_136\n      jump\t// in\n    tag_234:\n        /* \"#utility.yul\":9214:9353   */\n      swap1\n      pop\n        /* \"#utility.yul\":8941:9360   */\n      swap2\n      swap1\n      pop\n      jump\t// out\n        /* \"#utility.yul\":9366:9544   */\n    tag_137:\n        /* \"#utility.yul\":9506:9536   */\n      0x5072696365206d7573742062652067726561746572207468616e203000000000\n        /* \"#utility.yul\":9502:9503   */\n      0x00\n        /* \"#utility.yul\":9494:9500   */\n      dup3\n        /* \"#utility.yul\":9490:9504   */\n      add\n        /* \"#utility.yul\":9483:9537   */\n      mstore\n        /* \"#utility.yul\":9366:9544   */\n      pop\n      jump\t// out\n        /* \"#utility.yul\":9550:9916   */\n    tag_138:\n        /* \"#utility.yul\":9692:9695   */\n      0x00\n        /* \"#utility.yul\":9713:9780   */\n      tag_237\n        /* \"#utility.yul\":9777:9779   */\n      0x1c\n        /* \"#utility.yul\":9772:9775   */\n      dup4\n        /* \"#utility.yul\":9713:9780   */\n      tag_126\n      jump\t// in\n    tag_237:\n        /* \"#utility.yul\":9706:9780   */\n      swap2\n      pop\n        /* \"#utility.yul\":9789:9882   */\n      tag_238\n        /* \"#utility.yul\":9878:9881   */\n      dup3\n        /* \"#utility.yul\":9789:9882   */\n      tag_137\n      jump\t// in\n    tag_238:\n        /* \"#utility.yul\":9907:9909   */\n      0x20\n        /* \"#utility.yul\":9902:9905   */\n      dup3\n        /* \"#utility.yul\":9898:9910   */\n      add\n        /* \"#utility.yul\":9891:9910   */\n      swap1\n      pop\n        /* \"#utility.yul\":9550:9916   */\n      swap2\n      swap1\n      pop\n      jump\t// out\n        /* \"#utility.yul\":9922:10341   */\n    tag_85:\n        /* \"#utility.yul\":10088:10092   */\n      0x00\n        /* \"#utility.yul\":10126:10128   */\n      0x20\n        /* \"#utility.yul\":10115:10124   */\n      dup3\n        /* \"#utility.yul\":10111:10129   */\n      add\n        /* \"#utility.yul\":10103:10129   */\n      swap1\n      pop\n        /* \"#utility.yul\":10175:10184   */\n      dup2\n        /* \"#utility.yul\":10169:10173   */\n      dup2\n        /* \"#utility.yul\":10165:10185   */\n      sub\n        /* \"#utility.yul\":10161:10162   */\n      0x00\n        /* \"#utility.yul\":10150:10159   */\n      dup4\n        /* \"#utility.yul\":10146:10163   */\n      add\n        /* \"#utility.yul\":10139:10186   */\n      mstore\n        /* \"#utility.yul\":10203:10334   */\n      tag_240\n        /* \"#utility.yul\":10329:10333   */\n      dup2\n        /* \"#utility.yul\":10203:10334   */\n      tag_138\n      jump\t// in\n    tag_240:\n        /* \"#utility.yul\":10195:10334   */\n      swap1\n      pop\n        /* \"#utility.yul\":9922:10341   */\n      swap2\n      swap1\n      pop\n      jump\t// out\n        /* \"#utility.yul\":10347:10578   */\n    tag_139:\n        /* \"#utility.yul\":10487:10521   */\n      0x4e6577206c696d69742063616e6e6f74206265206c6f776572207468616e2063\n        /* \"#utility.yul\":10483:10484   */\n      0x00\n        /* \"#utility.yul\":10475:10481   */\n      dup3\n        /* \"#utility.yul\":10471:10485   */\n      add\n        /* \"#utility.yul\":10464:10522   */\n      mstore\n        /* \"#utility.yul\":10556:10570   */\n      0x757272656e742073746f636b0000000000000000000000000000000000000000\n        /* \"#utility.yul\":10551:10553   */\n      0x20\n        /* \"#utility.yul\":10543:10549   */\n      dup3\n        /* \"#utility.yul\":10539:10554   */\n      add\n        /* \"#utility.yul\":10532:10571   */\n      mstore\n        /* \"#utility.yul\":10347:10578   */\n      pop\n      jump\t// out\n        /* \"#utility.yul\":10584:10950   */\n    tag_140:\n        /* \"#utility.yul\":10726:10729   */\n      0x00\n        /* \"#utility.yul\":10747:10814   */\n      tag_243\n        /* \"#utility.yul\":10811:10813   */\n      0x2c\n        /* \"#utility.yul\":10806:10809   */\n      dup4\n        /* \"#utility.yul\":10747:10814   */\n      tag_126\n      jump\t// in\n    tag_243:\n        /* \"#utility.yul\":10740:10814   */\n      swap2\n      pop\n        /* \"#utility.yul\":10823:10916   */\n      tag_244\n        /* \"#utility.yul\":10912:10915   */\n      dup3\n        /* \"#utility.yul\":10823:10916   */\n      tag_139\n      jump\t// in\n    tag_244:\n        /* \"#utility.yul\":10941:10943   */\n      0x40\n        /* \"#utility.yul\":10936:10939   */\n      dup3\n        /* \"#utility.yul\":10932:10944   */\n      add\n        /* \"#utility.yul\":10925:10944   */\n      swap1\n      pop\n        /* \"#utility.yul\":10584:10950   */\n      swap2\n      swap1\n      pop\n      jump\t// out\n        /* \"#utility.yul\":10956:11375   */\n    tag_92:\n        /* \"#utility.yul\":11122:11126   */\n      0x00\n        /* \"#utility.yul\":11160:11162   */\n      0x20\n        /* \"#utility.yul\":11149:11158   */\n      dup3\n        /* \"#utility.yul\":11145:11163   */\n      add\n        /* \"#utility.yul\":11137:11163   */\n      swap1\n      pop\n        /* \"#utility.yul\":11209:11218   */\n      dup2\n        /* \"#utility.yul\":11203:11207   */\n      dup2\n        /* \"#utility.yul\":11199:11219   */\n      sub\n        /* \"#utility.yul\":11195:11196   */\n      0x00\n        /* \"#utility.yul\":11184:11193   */\n      dup4\n        /* \"#utility.yul\":11180:11197   */\n      add\n        /* \"#utility.yul\":11173:11220   */\n      mstore\n        /* \"#utility.yul\":11237:11368   */\n      tag_246\n        /* \"#utility.yul\":11363:11367   */\n      dup2\n        /* \"#utility.yul\":11237:11368   */\n      tag_140\n      jump\t// in\n    tag_246:\n        /* \"#utility.yul\":11229:11368   */\n      swap1\n      pop\n        /* \"#utility.yul\":10956:11375   */\n      swap2\n      swap1\n      pop\n      jump\t// out\n        /* \"#utility.yul\":11381:11550   */\n    tag_141:\n        /* \"#utility.yul\":11521:11542   */\n      0x457863656564732073746f636b206c696d697400000000000000000000000000\n        /* \"#utility.yul\":11517:11518   */\n      0x00\n        /* \"#utility.yul\":11509:11515   */\n      dup3\n        /* \"#utility.yul\":11505:11519   */\n      add\n        /* \"#utility.yul\":11498:11543   */\n      mstore\n        /* \"#utility.yul\":11381:11550   */\n      pop\n      jump\t// out\n        /* \"#utility.yul\":11556:11922   */\n    tag_142:\n        /* \"#utility.yul\":11698:11701   */\n      0x00\n        /* \"#utility.yul\":11719:11786   */\n      tag_249\n        /* \"#utility.yul\":11783:11785   */\n      0x13\n        /* \"#utility.yul\":11778:11781   */\n      dup4\n        /* \"#utility.yul\":11719:11786   */\n      tag_126\n      jump\t// in\n    tag_249:\n        /* \"#utility.yul\":11712:11786   */\n      swap2\n      pop\n        /* \"#utility.yul\":11795:11888   */\n      tag_250\n        /* \"#utility.yul\":11884:11887   */\n      dup3\n        /* \"#utility.yul\":11795:11888   */\n      tag_141\n      jump\t// in\n    tag_250:\n        /* \"#utility.yul\":11913:11915   */\n      0x20\n        /* \"#utility.yul\":11908:11911   */\n      dup3\n        /* \"#utility.yul\":11904:11916   */\n      add\n        /* \"#utility.yul\":11897:11916   */\n      swap1\n      pop\n        /* \"#utility.yul\":11556:11922   */\n      swap2\n      swap1\n      pop\n      jump\t// out\n        /* \"#utility.yul\":11928:12347   */\n    tag_101:\n        /* \"#utility.yul\":12094:12098   */\n      0x00\n        /* \"#utility.yul\":12132:12134   */\n      0x20\n        /* \"#utility.yul\":12121:12130   */\n      dup3\n        /* \"#utility.yul\":12117:12135   */\n      add\n        /* \"#utility.yul\":12109:12135   */\n      swap1\n      pop\n        /* \"#utility.yul\":12181:12190   */\n      dup2\n        /* \"#utility.yul\":12175:12179   */\n      dup2\n        /* \"#utility.yul\":12171:12191   */\n      sub\n        /* \"#utility.yul\":12167:12168   */\n      0x00\n        /* \"#utility.yul\":12156:12165   */\n      dup4\n        /* \"#utility.yul\":12152:12169   */\n      add\n        /* \"#utility.yul\":12145:12192   */\n      mstore\n        /* \"#utility.yul\":12209:12340   */\n      tag_252\n        /* \"#utility.yul\":12335:12339   */\n      dup2\n        /* \"#utility.yul\":12209:12340   */\n      tag_142\n      jump\t// in\n    tag_252:\n        /* \"#utility.yul\":12201:12340   */\n      swap1\n      pop\n        /* \"#utility.yul\":11928:12347   */\n      swap2\n      swap1\n      pop\n      jump\t// out\n        /* \"#utility.yul\":12353:12581   */\n    tag_105:\n        /* \"#utility.yul\":12388:12391   */\n      0x00\n        /* \"#utility.yul\":12411:12434   */\n      tag_254\n        /* \"#utility.yul\":12428:12433   */\n      dup3\n        /* \"#utility.yul\":12411:12434   */\n      tag_122\n      jump\t// in\n    tag_254:\n        /* \"#utility.yul\":12402:12434   */\n      swap2\n      pop\n        /* \"#utility.yul\":12456:12522   */\n      0x8000000000000000000000000000000000000000000000000000000000000000\n        /* \"#utility.yul\":12449:12454   */\n      dup3\n        /* \"#utility.yul\":12446:12523   */\n      sub\n        /* \"#utility.yul\":12443:12546   */\n      tag_255\n      jumpi\n        /* \"#utility.yul\":12526:12544   */\n      tag_256\n      tag_125\n      jump\t// in\n    tag_256:\n        /* \"#utility.yul\":12443:12546   */\n    tag_255:\n        /* \"#utility.yul\":12569:12574   */\n      dup2\n        /* \"#utility.yul\":12566:12567   */\n      0x00\n        /* \"#utility.yul\":12562:12575   */\n      sub\n        /* \"#utility.yul\":12555:12575   */\n      swap1\n      pop\n        /* \"#utility.yul\":12353:12581   */\n      swap2\n      swap1\n      pop\n      jump\t// out\n        /* \"#utility.yul\":12587:12767   */\n    tag_108:\n        /* \"#utility.yul\":12635:12712   */\n      0x4e487b7100000000000000000000000000000000000000000000000000000000\n        /* \"#utility.yul\":12632:12633   */\n      0x00\n        /* \"#utility.yul\":12625:12713   */\n      mstore\n        /* \"#utility.yul\":12732:12736   */\n      0x01\n        /* \"#utility.yul\":12729:12730   */\n      0x04\n        /* \"#utility.yul\":12722:12737   */\n      mstore\n        /* \"#utility.yul\":12756:12760   */\n      0x24\n        /* \"#utility.yul\":12753:12754   */\n      0x00\n        /* \"#utility.yul\":12746:12761   */\n      revert\n\n    auxdata: 0xa2646970667358221220730a259353dbb21cd6a4488f4ba6994ad262f5b4e47dcb485bc94d30cbd40f5e64736f6c634300081a0033\n}\n",
				"bytecode": {
					"linkReferences": {},
					"object": "6080604052600a5f556101f46001556103e860025560146005553480156023575f80fd5b503360035f6101000a81548173ffffffffffffffffffffffffffffffffffffffff021916908373ffffffffffffffffffffffffffffffffffffffff160217905550610e01806100715f395ff3fe608060405260043610610090575f3560e01c8063916357b811610058578063916357b814610156578063acde0b881461017e578063c631db0f146101ba578063de58a55a146101e4578063edb651c11461020e57610090565b80630a56ad271461009457806348c0efb4146100be57806349b414ba146100e85780636651b81c146101045780638da5cb5b1461012c575b5f80fd5b34801561009f575f80fd5b506100a8610236565b6040516100b5919061076b565b60405180910390f35b3480156100c9575f80fd5b506100d261023c565b6040516100df919061076b565b60405180910390f35b61010260048036038101906100fd91906107b2565b610241565b005b34801561010f575f80fd5b5061012a600480360381019061012591906107b2565b610412565b005b348015610137575f80fd5b506101406104ec565b60405161014d919061081c565b60405180910390f35b348015610161575f80fd5b5061017c600480360381019061017791906107b2565b610511565b005b348015610189575f80fd5b506101a4600480360381019061019f919061085f565b6105ef565b6040516101b1919061076b565b60405180910390f35b3480156101c5575f80fd5b506101ce610604565b6040516101db919061076b565b60405180910390f35b3480156101ef575f80fd5b506101f861060a565b604051610205919061076b565b60405180910390f35b348015610219575f80fd5b50610234600480360381019061022f91906108bd565b610610565b005b60025481565b5f5481565b5f548161024e9190610915565b341015610290576040517f08c379a0000000000000000000000000000000000000000000000000000000008152600401610287906109b0565b60405180910390fd5b5f81116102d2576040517f08c379a00000000000000000000000000000000000000000000000000000000081526004016102c990610a18565b60405180910390fd5b600154811115610317576040517f08c379a000000000000000000000000000000000000000000000000000000000815260040161030e90610a80565b60405180910390fd5b6005548160045f3373ffffffffffffffffffffffffffffffffffffffff1673ffffffffffffffffffffffffffffffffffffffff1681526020019081526020015f20546103639190610a9e565b11156103a4576040517f08c379a000000000000000000000000000000000000000000000000000000000815260040161039b90610b1b565b60405180910390fd5b8060015f8282546103b59190610b39565b925050819055508060045f3373ffffffffffffffffffffffffffffffffffffffff1673ffffffffffffffffffffffffffffffffffffffff1681526020019081526020015f205f8282546104089190610a9e565b9250508190555050565b60035f9054906101000a900473ffffffffffffffffffffffffffffffffffffffff1673ffffffffffffffffffffffffffffffffffffffff163373ffffffffffffffffffffffffffffffffffffffff16146104a1576040517f08c379a000000000000000000000000000000000000000000000000000000000815260040161049890610bdc565b60405180910390fd5b5f81116104e3576040517f08c379a00000000000000000000000000000000000000000000000000000000081526004016104da90610c44565b60405180910390fd5b805f8190555050565b60035f9054906101000a900473ffffffffffffffffffffffffffffffffffffffff1681565b60035f9054906101000a900473ffffffffffffffffffffffffffffffffffffffff1673ffffffffffffffffffffffffffffffffffffffff163373ffffffffffffffffffffffffffffffffffffffff16146105a0576040517f08c379a000000000000000000000000000000000000000000000000000000000815260040161059790610bdc565b60405180910390fd5b6001548110156105e5576040517f08c379a00000000000000000000000000000000000000000000000000000000081526004016105dc90610cd2565b60405180910390fd5b8060028190555050565b6004602052805f5260405f205f915090505481565b60015481565b60055481565b60035f9054906101000a900473ffffffffffffffffffffffffffffffffffffffff1673ffffffffffffffffffffffffffffffffffffffff163373ffffffffffffffffffffffffffffffffffffffff161461069f576040517f08c379a000000000000000000000000000000000000000000000000000000000815260040161069690610bdc565b60405180910390fd5b5f81131561071657600254816001546106b89190610a9e565b11156106f9576040517f08c379a00000000000000000000000000000000000000000000000000000000081526004016106f090610d3a565b60405180910390fd5b8060015f82825461070a9190610a9e565b92505081905550610750565b5f8161072190610d58565b905080600154101561073657610735610d9e565b5b8060015f8282546107479190610b39565b92505081905550505b50565b5f819050919050565b61076581610753565b82525050565b5f60208201905061077e5f83018461075c565b92915050565b5f80fd5b61079181610753565b811461079b575f80fd5b50565b5f813590506107ac81610788565b92915050565b5f602082840312156107c7576107c6610784565b5b5f6107d48482850161079e565b91505092915050565b5f73ffffffffffffffffffffffffffffffffffffffff82169050919050565b5f610806826107dd565b9050919050565b610816816107fc565b82525050565b5f60208201905061082f5f83018461080d565b92915050565b61083e816107fc565b8114610848575f80fd5b50565b5f8135905061085981610835565b92915050565b5f6020828403121561087457610873610784565b5b5f6108818482850161084b565b91505092915050565b5f819050919050565b61089c8161088a565b81146108a6575f80fd5b50565b5f813590506108b781610893565b92915050565b5f602082840312156108d2576108d1610784565b5b5f6108df848285016108a9565b91505092915050565b7f4e487b71000000000000000000000000000000000000000000000000000000005f52601160045260245ffd5b5f61091f82610753565b915061092a83610753565b925082820261093881610753565b9150828204841483151761094f5761094e6108e8565b5b5092915050565b5f82825260208201905092915050565b7f496e73756666696369656e74207061796d656e740000000000000000000000005f82015250565b5f61099a601483610956565b91506109a582610966565b602082019050919050565b5f6020820190508181035f8301526109c78161098e565b9050919050565b7f4d757374207075726368617365206174206c65617374203120547269636f74005f82015250565b5f610a02601f83610956565b9150610a0d826109ce565b602082019050919050565b5f6020820190508181035f830152610a2f816109f6565b9050919050565b7f4e6f7420656e6f7567682073746f636b20617661696c61626c650000000000005f82015250565b5f610a6a601a83610956565b9150610a7582610a36565b602082019050919050565b5f6020820190508181035f830152610a9781610a5e565b9050919050565b5f610aa882610753565b9150610ab383610753565b9250828201905080821115610acb57610aca6108e8565b5b92915050565b7f4f776e6564206c696d69742065786365656465640000000000000000000000005f82015250565b5f610b05601483610956565b9150610b1082610ad1565b602082019050919050565b5f6020820190508181035f830152610b3281610af9565b9050919050565b5f610b4382610753565b9150610b4e83610753565b9250828203905081811115610b6657610b656108e8565b5b92915050565b7f4f6e6c7920746865206f776e65722063616e20706572666f726d2074686973205f8201527f616374696f6e0000000000000000000000000000000000000000000000000000602082015250565b5f610bc6602683610956565b9150610bd182610b6c565b604082019050919050565b5f6020820190508181035f830152610bf381610bba565b9050919050565b7f5072696365206d7573742062652067726561746572207468616e2030000000005f82015250565b5f610c2e601c83610956565b9150610c3982610bfa565b602082019050919050565b5f6020820190508181035f830152610c5b81610c22565b9050919050565b7f4e6577206c696d69742063616e6e6f74206265206c6f776572207468616e20635f8201527f757272656e742073746f636b0000000000000000000000000000000000000000602082015250565b5f610cbc602c83610956565b9150610cc782610c62565b604082019050919050565b5f6020820190508181035f830152610ce981610cb0565b9050919050565b7f457863656564732073746f636b206c696d6974000000000000000000000000005f82015250565b5f610d24601383610956565b9150610d2f82610cf0565b602082019050919050565b5f6020820190508181035f830152610d5181610d18565b9050919050565b5f610d628261088a565b91507f80000000000000000000000000000000000000000000000000000000000000008203610d9457610d936108e8565b5b815f039050919050565b7f4e487b71000000000000000000000000000000000000000000000000000000005f52600160045260245ffdfea2646970667358221220730a259353dbb21cd6a4488f4ba6994ad262f5b4e47dcb485bc94d30cbd40f5e64736f6c634300081a0033",
					"opcodes": "PUSH1 0x80 PUSH1 0x40 MSTORE PUSH1 0xA PUSH0 SSTORE PUSH2 0x1F4 PUSH1 0x1 SSTORE PUSH2 0x3E8 PUSH1 0x2 SSTORE PUSH1 0x14 PUSH1 0x5 SSTORE CALLVALUE DUP1 ISZERO PUSH1 0x23 JUMPI PUSH0 DUP1 REVERT JUMPDEST POP CALLER PUSH1 0x3 PUSH0 PUSH2 0x100 EXP DUP2 SLOAD DUP2 PUSH20 0xFFFFFFFFFFFFFFFFFFFFFFFFFFFFFFFFFFFFFFFF MUL NOT AND SWAP1 DUP4 PUSH20 0xFFFFFFFFFFFFFFFFFFFFFFFFFFFFFFFFFFFFFFFF AND MUL OR SWAP1 SSTORE POP PUSH2 0xE01 DUP1 PUSH2 0x71 PUSH0 CODECOPY PUSH0 RETURN INVALID PUSH1 0x80 PUSH1 0x40 MSTORE PUSH1 0x4 CALLDATASIZE LT PUSH2 0x90 JUMPI PUSH0 CALLDATALOAD PUSH1 0xE0 SHR DUP1 PUSH4 0x916357B8 GT PUSH2 0x58 JUMPI DUP1 PUSH4 0x916357B8 EQ PUSH2 0x156 JUMPI DUP1 PUSH4 0xACDE0B88 EQ PUSH2 0x17E JUMPI DUP1 PUSH4 0xC631DB0F EQ PUSH2 0x1BA JUMPI DUP1 PUSH4 0xDE58A55A EQ PUSH2 0x1E4 JUMPI DUP1 PUSH4 0xEDB651C1 EQ PUSH2 0x20E JUMPI PUSH2 0x90 JUMP JUMPDEST DUP1 PUSH4 0xA56AD27 EQ PUSH2 0x94 JUMPI DUP1 PUSH4 0x48C0EFB4 EQ PUSH2 0xBE JUMPI DUP1 PUSH4 0x49B414BA EQ PUSH2 0xE8 JUMPI DUP1 PUSH4 0x6651B81C EQ PUSH2 0x104 JUMPI DUP1 PUSH4 0x8DA5CB5B EQ PUSH2 0x12C JUMPI JUMPDEST PUSH0 DUP1 REVERT JUMPDEST CALLVALUE DUP1 ISZERO PUSH2 0x9F JUMPI PUSH0 DUP1 REVERT JUMPDEST POP PUSH2 0xA8 PUSH2 0x236 JUMP JUMPDEST PUSH1 0x40 MLOAD PUSH2 0xB5 SWAP2 SWAP1 PUSH2 0x76B JUMP JUMPDEST PUSH1 0x40 MLOAD DUP1 SWAP2 SUB SWAP1 RETURN JUMPDEST CALLVALUE DUP1 ISZERO PUSH2 0xC9 JUMPI PUSH0 DUP1 REVERT JUMPDEST POP PUSH2 0xD2 PUSH2 0x23C JUMP JUMPDEST PUSH1 0x40 MLOAD PUSH2 0xDF SWAP2 SWAP1 PUSH2 0x76B JUMP JUMPDEST PUSH1 0x40 MLOAD DUP1 SWAP2 SUB SWAP1 RETURN JUMPDEST PUSH2 0x102 PUSH1 0x4 DUP1 CALLDATASIZE SUB DUP2 ADD SWAP1 PUSH2 0xFD SWAP2 SWAP1 PUSH2 0x7B2 JUMP JUMPDEST PUSH2 0x241 JUMP JUMPDEST STOP JUMPDEST CALLVALUE DUP1 ISZERO PUSH2 0x10F JUMPI PUSH0 DUP1 REVERT JUMPDEST POP PUSH2 0x12A PUSH1 0x4 DUP1 CALLDATASIZE SUB DUP2 ADD SWAP1 PUSH2 0x125 SWAP2 SWAP1 PUSH2 0x7B2 JUMP JUMPDEST PUSH2 0x412 JUMP JUMPDEST STOP JUMPDEST CALLVALUE DUP1 ISZERO PUSH2 0x137 JUMPI PUSH0 DUP1 REVERT JUMPDEST POP PUSH2 0x140 PUSH2 0x4EC JUMP JUMPDEST PUSH1 0x40 MLOAD PUSH2 0x14D SWAP2 SWAP1 PUSH2 0x81C JUMP JUMPDEST PUSH1 0x40 MLOAD DUP1 SWAP2 SUB SWAP1 RETURN JUMPDEST CALLVALUE DUP1 ISZERO PUSH2 0x161 JUMPI PUSH0 DUP1 REVERT JUMPDEST POP PUSH2 0x17C PUSH1 0x4 DUP1 CALLDATASIZE SUB DUP2 ADD SWAP1 PUSH2 0x177 SWAP2 SWAP1 PUSH2 0x7B2 JUMP JUMPDEST PUSH2 0x511 JUMP JUMPDEST STOP JUMPDEST CALLVALUE DUP1 ISZERO PUSH2 0x189 JUMPI PUSH0 DUP1 REVERT JUMPDEST POP PUSH2 0x1A4 PUSH1 0x4 DUP1 CALLDATASIZE SUB DUP2 ADD SWAP1 PUSH2 0x19F SWAP2 SWAP1 PUSH2 0x85F JUMP JUMPDEST PUSH2 0x5EF JUMP JUMPDEST PUSH1 0x40 MLOAD PUSH2 0x1B1 SWAP2 SWAP1 PUSH2 0x76B JUMP JUMPDEST PUSH1 0x40 MLOAD DUP1 SWAP2 SUB SWAP1 RETURN JUMPDEST CALLVALUE DUP1 ISZERO PUSH2 0x1C5 JUMPI PUSH0 DUP1 REVERT JUMPDEST POP PUSH2 0x1CE PUSH2 0x604 JUMP JUMPDEST PUSH1 0x40 MLOAD PUSH2 0x1DB SWAP2 SWAP1 PUSH2 0x76B JUMP JUMPDEST PUSH1 0x40 MLOAD DUP1 SWAP2 SUB SWAP1 RETURN JUMPDEST CALLVALUE DUP1 ISZERO PUSH2 0x1EF JUMPI PUSH0 DUP1 REVERT JUMPDEST POP PUSH2 0x1F8 PUSH2 0x60A JUMP JUMPDEST PUSH1 0x40 MLOAD PUSH2 0x205 SWAP2 SWAP1 PUSH2 0x76B JUMP JUMPDEST PUSH1 0x40 MLOAD DUP1 SWAP2 SUB SWAP1 RETURN JUMPDEST CALLVALUE DUP1 ISZERO PUSH2 0x219 JUMPI PUSH0 DUP1 REVERT JUMPDEST POP PUSH2 0x234 PUSH1 0x4 DUP1 CALLDATASIZE SUB DUP2 ADD SWAP1 PUSH2 0x22F SWAP2 SWAP1 PUSH2 0x8BD JUMP JUMPDEST PUSH2 0x610 JUMP JUMPDEST STOP JUMPDEST PUSH1 0x2 SLOAD DUP2 JUMP JUMPDEST PUSH0 SLOAD DUP2 JUMP JUMPDEST PUSH0 SLOAD DUP2 PUSH2 0x24E SWAP2 SWAP1 PUSH2 0x915 JUMP JUMPDEST CALLVALUE LT ISZERO PUSH2 0x290 JUMPI PUSH1 0x40 MLOAD PUSH32 0x8C379A000000000000000000000000000000000000000000000000000000000 DUP2 MSTORE PUSH1 0x4 ADD PUSH2 0x287 SWAP1 PUSH2 0x9B0 JUMP JUMPDEST PUSH1 0x40 MLOAD DUP1 SWAP2 SUB SWAP1 REVERT JUMPDEST PUSH0 DUP2 GT PUSH2 0x2D2 JUMPI PUSH1 0x40 MLOAD PUSH32 0x8C379A000000000000000000000000000000000000000000000000000000000 DUP2 MSTORE PUSH1 0x4 ADD PUSH2 0x2C9 SWAP1 PUSH2 0xA18 JUMP JUMPDEST PUSH1 0x40 MLOAD DUP1 SWAP2 SUB SWAP1 REVERT JUMPDEST PUSH1 0x1 SLOAD DUP2 GT ISZERO PUSH2 0x317 JUMPI PUSH1 0x40 MLOAD PUSH32 0x8C379A000000000000000000000000000000000000000000000000000000000 DUP2 MSTORE PUSH1 0x4 ADD PUSH2 0x30E SWAP1 PUSH2 0xA80 JUMP JUMPDEST PUSH1 0x40 MLOAD DUP1 SWAP2 SUB SWAP1 REVERT JUMPDEST PUSH1 0x5 SLOAD DUP2 PUSH1 0x4 PUSH0 CALLER PUSH20 0xFFFFFFFFFFFFFFFFFFFFFFFFFFFFFFFFFFFFFFFF AND PUSH20 0xFFFFFFFFFFFFFFFFFFFFFFFFFFFFFFFFFFFFFFFF AND DUP2 MSTORE PUSH1 0x20 ADD SWAP1 DUP2 MSTORE PUSH1 0x20 ADD PUSH0 KECCAK256 SLOAD PUSH2 0x363 SWAP2 SWAP1 PUSH2 0xA9E JUMP JUMPDEST GT ISZERO PUSH2 0x3A4 JUMPI PUSH1 0x40 MLOAD PUSH32 0x8C379A000000000000000000000000000000000000000000000000000000000 DUP2 MSTORE PUSH1 0x4 ADD PUSH2 0x39B SWAP1 PUSH2 0xB1B JUMP JUMPDEST PUSH1 0x40 MLOAD DUP1 SWAP2 SUB SWAP1 REVERT JUMPDEST DUP1 PUSH1 0x1 PUSH0 DUP3 DUP3 SLOAD PUSH2 0x3B5 SWAP2 SWAP1 PUSH2 0xB39 JUMP JUMPDEST SWAP3 POP POP DUP2 SWAP1 SSTORE POP DUP1 PUSH1 0x4 PUSH0 CALLER PUSH20 0xFFFFFFFFFFFFFFFFFFFFFFFFFFFFFFFFFFFFFFFF AND PUSH20 0xFFFFFFFFFFFFFFFFFFFFFFFFFFFFFFFFFFFFFFFF AND DUP2 MSTORE PUSH1 0x20 ADD SWAP1 DUP2 MSTORE PUSH1 0x20 ADD PUSH0 KECCAK256 PUSH0 DUP3 DUP3 SLOAD PUSH2 0x408 SWAP2 SWAP1 PUSH2 0xA9E JUMP JUMPDEST SWAP3 POP POP DUP2 SWAP1 SSTORE POP POP JUMP JUMPDEST PUSH1 0x3 PUSH0 SWAP1 SLOAD SWAP1 PUSH2 0x100 EXP SWAP1 DIV PUSH20 0xFFFFFFFFFFFFFFFFFFFFFFFFFFFFFFFFFFFFFFFF AND PUSH20 0xFFFFFFFFFFFFFFFFFFFFFFFFFFFFFFFFFFFFFFFF AND CALLER PUSH20 0xFFFFFFFFFFFFFFFFFFFFFFFFFFFFFFFFFFFFFFFF AND EQ PUSH2 0x4A1 JUMPI PUSH1 0x40 MLOAD PUSH32 0x8C379A000000000000000000000000000000000000000000000000000000000 DUP2 MSTORE PUSH1 0x4 ADD PUSH2 0x498 SWAP1 PUSH2 0xBDC JUMP JUMPDEST PUSH1 0x40 MLOAD DUP1 SWAP2 SUB SWAP1 REVERT JUMPDEST PUSH0 DUP2 GT PUSH2 0x4E3 JUMPI PUSH1 0x40 MLOAD PUSH32 0x8C379A000000000000000000000000000000000000000000000000000000000 DUP2 MSTORE PUSH1 0x4 ADD PUSH2 0x4DA SWAP1 PUSH2 0xC44 JUMP JUMPDEST PUSH1 0x40 MLOAD DUP1 SWAP2 SUB SWAP1 REVERT JUMPDEST DUP1 PUSH0 DUP2 SWAP1 SSTORE POP POP JUMP JUMPDEST PUSH1 0x3 PUSH0 SWAP1 SLOAD SWAP1 PUSH2 0x100 EXP SWAP1 DIV PUSH20 0xFFFFFFFFFFFFFFFFFFFFFFFFFFFFFFFFFFFFFFFF AND DUP2 JUMP JUMPDEST PUSH1 0x3 PUSH0 SWAP1 SLOAD SWAP1 PUSH2 0x100 EXP SWAP1 DIV PUSH20 0xFFFFFFFFFFFFFFFFFFFFFFFFFFFFFFFFFFFFFFFF AND PUSH20 0xFFFFFFFFFFFFFFFFFFFFFFFFFFFFFFFFFFFFFFFF AND CALLER PUSH20 0xFFFFFFFFFFFFFFFFFFFFFFFFFFFFFFFFFFFFFFFF AND EQ PUSH2 0x5A0 JUMPI PUSH1 0x40 MLOAD PUSH32 0x8C379A000000000000000000000000000000000000000000000000000000000 DUP2 MSTORE PUSH1 0x4 ADD PUSH2 0x597 SWAP1 PUSH2 0xBDC JUMP JUMPDEST PUSH1 0x40 MLOAD DUP1 SWAP2 SUB SWAP1 REVERT JUMPDEST PUSH1 0x1 SLOAD DUP2 LT ISZERO PUSH2 0x5E5 JUMPI PUSH1 0x40 MLOAD PUSH32 0x8C379A000000000000000000000000000000000000000000000000000000000 DUP2 MSTORE PUSH1 0x4 ADD PUSH2 0x5DC SWAP1 PUSH2 0xCD2 JUMP JUMPDEST PUSH1 0x40 MLOAD DUP1 SWAP2 SUB SWAP1 REVERT JUMPDEST DUP1 PUSH1 0x2 DUP2 SWAP1 SSTORE POP POP JUMP JUMPDEST PUSH1 0x4 PUSH1 0x20 MSTORE DUP1 PUSH0 MSTORE PUSH1 0x40 PUSH0 KECCAK256 PUSH0 SWAP2 POP SWAP1 POP SLOAD DUP2 JUMP JUMPDEST PUSH1 0x1 SLOAD DUP2 JUMP JUMPDEST PUSH1 0x5 SLOAD DUP2 JUMP JUMPDEST PUSH1 0x3 PUSH0 SWAP1 SLOAD SWAP1 PUSH2 0x100 EXP SWAP1 DIV PUSH20 0xFFFFFFFFFFFFFFFFFFFFFFFFFFFFFFFFFFFFFFFF AND PUSH20 0xFFFFFFFFFFFFFFFFFFFFFFFFFFFFFFFFFFFFFFFF AND CALLER PUSH20 0xFFFFFFFFFFFFFFFFFFFFFFFFFFFFFFFFFFFFFFFF AND EQ PUSH2 0x69F JUMPI PUSH1 0x40 MLOAD PUSH32 0x8C379A000000000000000000000000000000000000000000000000000000000 DUP2 MSTORE PUSH1 0x4 ADD PUSH2 0x696 SWAP1 PUSH2 0xBDC JUMP JUMPDEST PUSH1 0x40 MLOAD DUP1 SWAP2 SUB SWAP1 REVERT JUMPDEST PUSH0 DUP2 SGT ISZERO PUSH2 0x716 JUMPI PUSH1 0x2 SLOAD DUP2 PUSH1 0x1 SLOAD PUSH2 0x6B8 SWAP2 SWAP1 PUSH2 0xA9E JUMP JUMPDEST GT ISZERO PUSH2 0x6F9 JUMPI PUSH1 0x40 MLOAD PUSH32 0x8C379A000000000000000000000000000000000000000000000000000000000 DUP2 MSTORE PUSH1 0x4 ADD PUSH2 0x6F0 SWAP1 PUSH2 0xD3A JUMP JUMPDEST PUSH1 0x40 MLOAD DUP1 SWAP2 SUB SWAP1 REVERT JUMPDEST DUP1 PUSH1 0x1 PUSH0 DUP3 DUP3 SLOAD PUSH2 0x70A SWAP2 SWAP1 PUSH2 0xA9E JUMP JUMPDEST SWAP3 POP POP DUP2 SWAP1 SSTORE POP PUSH2 0x750 JUMP JUMPDEST PUSH0 DUP2 PUSH2 0x721 SWAP1 PUSH2 0xD58 JUMP JUMPDEST SWAP1 POP DUP1 PUSH1 0x1 SLOAD LT ISZERO PUSH2 0x736 JUMPI PUSH2 0x735 PUSH2 0xD9E JUMP JUMPDEST JUMPDEST DUP1 PUSH1 0x1 PUSH0 DUP3 DUP3 SLOAD PUSH2 0x747 SWAP2 SWAP1 PUSH2 0xB39 JUMP JUMPDEST SWAP3 POP POP DUP2 SWAP1 SSTORE POP POP JUMPDEST POP JUMP JUMPDEST PUSH0 DUP2 SWAP1 POP SWAP2 SWAP1 POP JUMP JUMPDEST PUSH2 0x765 DUP2 PUSH2 0x753 JUMP JUMPDEST DUP3 MSTORE POP POP JUMP JUMPDEST PUSH0 PUSH1 0x20 DUP3 ADD SWAP1 POP PUSH2 0x77E PUSH0 DUP4 ADD DUP5 PUSH2 0x75C JUMP JUMPDEST SWAP3 SWAP2 POP POP JUMP JUMPDEST PUSH0 DUP1 REVERT JUMPDEST PUSH2 0x791 DUP2 PUSH2 0x753 JUMP JUMPDEST DUP2 EQ PUSH2 0x79B JUMPI PUSH0 DUP1 REVERT JUMPDEST POP JUMP JUMPDEST PUSH0 DUP2 CALLDATALOAD SWAP1 POP PUSH2 0x7AC DUP2 PUSH2 0x788 JUMP JUMPDEST SWAP3 SWAP2 POP POP JUMP JUMPDEST PUSH0 PUSH1 0x20 DUP3 DUP5 SUB SLT ISZERO PUSH2 0x7C7 JUMPI PUSH2 0x7C6 PUSH2 0x784 JUMP JUMPDEST JUMPDEST PUSH0 PUSH2 0x7D4 DUP5 DUP3 DUP6 ADD PUSH2 0x79E JUMP JUMPDEST SWAP2 POP POP SWAP3 SWAP2 POP POP JUMP JUMPDEST PUSH0 PUSH20 0xFFFFFFFFFFFFFFFFFFFFFFFFFFFFFFFFFFFFFFFF DUP3 AND SWAP1 POP SWAP2 SWAP1 POP JUMP JUMPDEST PUSH0 PUSH2 0x806 DUP3 PUSH2 0x7DD JUMP JUMPDEST SWAP1 POP SWAP2 SWAP1 POP JUMP JUMPDEST PUSH2 0x816 DUP2 PUSH2 0x7FC JUMP JUMPDEST DUP3 MSTORE POP POP JUMP JUMPDEST PUSH0 PUSH1 0x20 DUP3 ADD SWAP1 POP PUSH2 0x82F PUSH0 DUP4 ADD DUP5 PUSH2 0x80D JUMP JUMPDEST SWAP3 SWAP2 POP POP JUMP JUMPDEST PUSH2 0x83E DUP2 PUSH2 0x7FC JUMP JUMPDEST DUP2 EQ PUSH2 0x848 JUMPI PUSH0 DUP1 REVERT JUMPDEST POP JUMP JUMPDEST PUSH0 DUP2 CALLDATALOAD SWAP1 POP PUSH2 0x859 DUP2 PUSH2 0x835 JUMP JUMPDEST SWAP3 SWAP2 POP POP JUMP JUMPDEST PUSH0 PUSH1 0x20 DUP3 DUP5 SUB SLT ISZERO PUSH2 0x874 JUMPI PUSH2 0x873 PUSH2 0x784 JUMP JUMPDEST JUMPDEST PUSH0 PUSH2 0x881 DUP5 DUP3 DUP6 ADD PUSH2 0x84B JUMP JUMPDEST SWAP2 POP POP SWAP3 SWAP2 POP POP JUMP JUMPDEST PUSH0 DUP2 SWAP1 POP SWAP2 SWAP1 POP JUMP JUMPDEST PUSH2 0x89C DUP2 PUSH2 0x88A JUMP JUMPDEST DUP2 EQ PUSH2 0x8A6 JUMPI PUSH0 DUP1 REVERT JUMPDEST POP JUMP JUMPDEST PUSH0 DUP2 CALLDATALOAD SWAP1 POP PUSH2 0x8B7 DUP2 PUSH2 0x893 JUMP JUMPDEST SWAP3 SWAP2 POP POP JUMP JUMPDEST PUSH0 PUSH1 0x20 DUP3 DUP5 SUB SLT ISZERO PUSH2 0x8D2 JUMPI PUSH2 0x8D1 PUSH2 0x784 JUMP JUMPDEST JUMPDEST PUSH0 PUSH2 0x8DF DUP5 DUP3 DUP6 ADD PUSH2 0x8A9 JUMP JUMPDEST SWAP2 POP POP SWAP3 SWAP2 POP POP JUMP JUMPDEST PUSH32 0x4E487B7100000000000000000000000000000000000000000000000000000000 PUSH0 MSTORE PUSH1 0x11 PUSH1 0x4 MSTORE PUSH1 0x24 PUSH0 REVERT JUMPDEST PUSH0 PUSH2 0x91F DUP3 PUSH2 0x753 JUMP JUMPDEST SWAP2 POP PUSH2 0x92A DUP4 PUSH2 0x753 JUMP JUMPDEST SWAP3 POP DUP3 DUP3 MUL PUSH2 0x938 DUP2 PUSH2 0x753 JUMP JUMPDEST SWAP2 POP DUP3 DUP3 DIV DUP5 EQ DUP4 ISZERO OR PUSH2 0x94F JUMPI PUSH2 0x94E PUSH2 0x8E8 JUMP JUMPDEST JUMPDEST POP SWAP3 SWAP2 POP POP JUMP JUMPDEST PUSH0 DUP3 DUP3 MSTORE PUSH1 0x20 DUP3 ADD SWAP1 POP SWAP3 SWAP2 POP POP JUMP JUMPDEST PUSH32 0x496E73756666696369656E74207061796D656E74000000000000000000000000 PUSH0 DUP3 ADD MSTORE POP JUMP JUMPDEST PUSH0 PUSH2 0x99A PUSH1 0x14 DUP4 PUSH2 0x956 JUMP JUMPDEST SWAP2 POP PUSH2 0x9A5 DUP3 PUSH2 0x966 JUMP JUMPDEST PUSH1 0x20 DUP3 ADD SWAP1 POP SWAP2 SWAP1 POP JUMP JUMPDEST PUSH0 PUSH1 0x20 DUP3 ADD SWAP1 POP DUP2 DUP2 SUB PUSH0 DUP4 ADD MSTORE PUSH2 0x9C7 DUP2 PUSH2 0x98E JUMP JUMPDEST SWAP1 POP SWAP2 SWAP1 POP JUMP JUMPDEST PUSH32 0x4D757374207075726368617365206174206C65617374203120547269636F7400 PUSH0 DUP3 ADD MSTORE POP JUMP JUMPDEST PUSH0 PUSH2 0xA02 PUSH1 0x1F DUP4 PUSH2 0x956 JUMP JUMPDEST SWAP2 POP PUSH2 0xA0D DUP3 PUSH2 0x9CE JUMP JUMPDEST PUSH1 0x20 DUP3 ADD SWAP1 POP SWAP2 SWAP1 POP JUMP JUMPDEST PUSH0 PUSH1 0x20 DUP3 ADD SWAP1 POP DUP2 DUP2 SUB PUSH0 DUP4 ADD MSTORE PUSH2 0xA2F DUP2 PUSH2 0x9F6 JUMP JUMPDEST SWAP1 POP SWAP2 SWAP1 POP JUMP JUMPDEST PUSH32 0x4E6F7420656E6F7567682073746F636B20617661696C61626C65000000000000 PUSH0 DUP3 ADD MSTORE POP JUMP JUMPDEST PUSH0 PUSH2 0xA6A PUSH1 0x1A DUP4 PUSH2 0x956 JUMP JUMPDEST SWAP2 POP PUSH2 0xA75 DUP3 PUSH2 0xA36 JUMP JUMPDEST PUSH1 0x20 DUP3 ADD SWAP1 POP SWAP2 SWAP1 POP JUMP JUMPDEST PUSH0 PUSH1 0x20 DUP3 ADD SWAP1 POP DUP2 DUP2 SUB PUSH0 DUP4 ADD MSTORE PUSH2 0xA97 DUP2 PUSH2 0xA5E JUMP JUMPDEST SWAP1 POP SWAP2 SWAP1 POP JUMP JUMPDEST PUSH0 PUSH2 0xAA8 DUP3 PUSH2 0x753 JUMP JUMPDEST SWAP2 POP PUSH2 0xAB3 DUP4 PUSH2 0x753 JUMP JUMPDEST SWAP3 POP DUP3 DUP3 ADD SWAP1 POP DUP1 DUP3 GT ISZERO PUSH2 0xACB JUMPI PUSH2 0xACA PUSH2 0x8E8 JUMP JUMPDEST JUMPDEST SWAP3 SWAP2 POP POP JUMP JUMPDEST PUSH32 0x4F776E6564206C696D6974206578636565646564000000000000000000000000 PUSH0 DUP3 ADD MSTORE POP JUMP JUMPDEST PUSH0 PUSH2 0xB05 PUSH1 0x14 DUP4 PUSH2 0x956 JUMP JUMPDEST SWAP2 POP PUSH2 0xB10 DUP3 PUSH2 0xAD1 JUMP JUMPDEST PUSH1 0x20 DUP3 ADD SWAP1 POP SWAP2 SWAP1 POP JUMP JUMPDEST PUSH0 PUSH1 0x20 DUP3 ADD SWAP1 POP DUP2 DUP2 SUB PUSH0 DUP4 ADD MSTORE PUSH2 0xB32 DUP2 PUSH2 0xAF9 JUMP JUMPDEST SWAP1 POP SWAP2 SWAP1 POP JUMP JUMPDEST PUSH0 PUSH2 0xB43 DUP3 PUSH2 0x753 JUMP JUMPDEST SWAP2 POP PUSH2 0xB4E DUP4 PUSH2 0x753 JUMP JUMPDEST SWAP3 POP DUP3 DUP3 SUB SWAP1 POP DUP2 DUP2 GT ISZERO PUSH2 0xB66 JUMPI PUSH2 0xB65 PUSH2 0x8E8 JUMP JUMPDEST JUMPDEST SWAP3 SWAP2 POP POP JUMP JUMPDEST PUSH32 0x4F6E6C7920746865206F776E65722063616E20706572666F726D207468697320 PUSH0 DUP3 ADD MSTORE PUSH32 0x616374696F6E0000000000000000000000000000000000000000000000000000 PUSH1 0x20 DUP3 ADD MSTORE POP JUMP JUMPDEST PUSH0 PUSH2 0xBC6 PUSH1 0x26 DUP4 PUSH2 0x956 JUMP JUMPDEST SWAP2 POP PUSH2 0xBD1 DUP3 PUSH2 0xB6C JUMP JUMPDEST PUSH1 0x40 DUP3 ADD SWAP1 POP SWAP2 SWAP1 POP JUMP JUMPDEST PUSH0 PUSH1 0x20 DUP3 ADD SWAP1 POP DUP2 DUP2 SUB PUSH0 DUP4 ADD MSTORE PUSH2 0xBF3 DUP2 PUSH2 0xBBA JUMP JUMPDEST SWAP1 POP SWAP2 SWAP1 POP JUMP JUMPDEST PUSH32 0x5072696365206D7573742062652067726561746572207468616E203000000000 PUSH0 DUP3 ADD MSTORE POP JUMP JUMPDEST PUSH0 PUSH2 0xC2E PUSH1 0x1C DUP4 PUSH2 0x956 JUMP JUMPDEST SWAP2 POP PUSH2 0xC39 DUP3 PUSH2 0xBFA JUMP JUMPDEST PUSH1 0x20 DUP3 ADD SWAP1 POP SWAP2 SWAP1 POP JUMP JUMPDEST PUSH0 PUSH1 0x20 DUP3 ADD SWAP1 POP DUP2 DUP2 SUB PUSH0 DUP4 ADD MSTORE PUSH2 0xC5B DUP2 PUSH2 0xC22 JUMP JUMPDEST SWAP1 POP SWAP2 SWAP1 POP JUMP JUMPDEST PUSH32 0x4E6577206C696D69742063616E6E6F74206265206C6F776572207468616E2063 PUSH0 DUP3 ADD MSTORE PUSH32 0x757272656E742073746F636B0000000000000000000000000000000000000000 PUSH1 0x20 DUP3 ADD MSTORE POP JUMP JUMPDEST PUSH0 PUSH2 0xCBC PUSH1 0x2C DUP4 PUSH2 0x956 JUMP JUMPDEST SWAP2 POP PUSH2 0xCC7 DUP3 PUSH2 0xC62 JUMP JUMPDEST PUSH1 0x40 DUP3 ADD SWAP1 POP SWAP2 SWAP1 POP JUMP JUMPDEST PUSH0 PUSH1 0x20 DUP3 ADD SWAP1 POP DUP2 DUP2 SUB PUSH0 DUP4 ADD MSTORE PUSH2 0xCE9 DUP2 PUSH2 0xCB0 JUMP JUMPDEST SWAP1 POP SWAP2 SWAP1 POP JUMP JUMPDEST PUSH32 0x457863656564732073746F636B206C696D697400000000000000000000000000 PUSH0 DUP3 ADD MSTORE POP JUMP JUMPDEST PUSH0 PUSH2 0xD24 PUSH1 0x13 DUP4 PUSH2 0x956 JUMP JUMPDEST SWAP2 POP PUSH2 0xD2F DUP3 PUSH2 0xCF0 JUMP JUMPDEST PUSH1 0x20 DUP3 ADD SWAP1 POP SWAP2 SWAP1 POP JUMP JUMPDEST PUSH0 PUSH1 0x20 DUP3 ADD SWAP1 POP DUP2 DUP2 SUB PUSH0 DUP4 ADD MSTORE PUSH2 0xD51 DUP2 PUSH2 0xD18 JUMP JUMPDEST SWAP1 POP SWAP2 SWAP1 POP JUMP JUMPDEST PUSH0 PUSH2 0xD62 DUP3 PUSH2 0x88A JUMP JUMPDEST SWAP2 POP PUSH32 0x8000000000000000000000000000000000000000000000000000000000000000 DUP3 SUB PUSH2 0xD94 JUMPI PUSH2 0xD93 PUSH2 0x8E8 JUMP JUMPDEST JUMPDEST DUP2 PUSH0 SUB SWAP1 POP SWAP2 SWAP1 POP JUMP JUMPDEST PUSH32 0x4E487B7100000000000000000000000000000000000000000000000000000000 PUSH0 MSTORE PUSH1 0x1 PUSH1 0x4 MSTORE PUSH1 0x24 PUSH0 REVERT INVALID LOG2 PUSH5 0x6970667358 0x22 SLT KECCAK256 PUSH20 0xA259353DBB21CD6A4488F4BA6994AD262F5B4E4 PUSH30 0xCB485BC94D30CBD40F5E64736F6C634300081A0033000000000000000000 "
				},
				"gasEstimates": {
					"creation": {
						"codeDepositCost": "717000",
						"executionCost": "113439",
						"totalCost": "830439"
					},
					"external": {
						"buyTricot(uint256)": "infinite",
						"modifyTricotStock(int256)": "infinite",
						"owner()": "2597",
						"tricotOwned(address)": "2824",
						"tricotOwnedLimit()": "2491",
						"tricotPrice()": "2447",
						"tricotStock()": "2469",
						"tricotStockLimit()": "2426",
						"updateTricotPrice(uint256)": "24772",
						"updateTricotStockLimit(uint256)": "26810"
					}
				},
				"methodIdentifiers": {
					"buyTricot(uint256)": "49b414ba",
					"modifyTricotStock(int256)": "edb651c1",
					"owner()": "8da5cb5b",
					"tricotOwned(address)": "acde0b88",
					"tricotOwnedLimit()": "de58a55a",
					"tricotPrice()": "48c0efb4",
					"tricotStock()": "c631db0f",
					"tricotStockLimit()": "0a56ad27",
					"updateTricotPrice(uint256)": "6651b81c",
					"updateTricotStockLimit(uint256)": "916357b8"
				}
			},
			"storageLayout": {
				"storage": [
					{
						"astId": 4,
						"contract": "tricotContract.sol:TricotShop",
						"label": "tricotPrice",
						"offset": 0,
						"slot": "0",
						"type": "t_uint256"
					},
					{
						"astId": 7,
						"contract": "tricotContract.sol:TricotShop",
						"label": "tricotStock",
						"offset": 0,
						"slot": "1",
						"type": "t_uint256"
					},
					{
						"astId": 10,
						"contract": "tricotContract.sol:TricotShop",
						"label": "tricotStockLimit",
						"offset": 0,
						"slot": "2",
						"type": "t_uint256"
					},
					{
						"astId": 12,
						"contract": "tricotContract.sol:TricotShop",
						"label": "owner",
						"offset": 0,
						"slot": "3",
						"type": "t_address"
					},
					{
						"astId": 16,
						"contract": "tricotContract.sol:TricotShop",
						"label": "tricotOwned",
						"offset": 0,
						"slot": "4",
						"type": "t_mapping(t_address,t_uint256)"
					},
					{
						"astId": 19,
						"contract": "tricotContract.sol:TricotShop",
						"label": "tricotOwnedLimit",
						"offset": 0,
						"slot": "5",
						"type": "t_uint256"
					}
				],
				"types": {
					"t_address": {
						"encoding": "inplace",
						"label": "address",
						"numberOfBytes": "20"
					},
					"t_mapping(t_address,t_uint256)": {
						"encoding": "mapping",
						"key": "t_address",
						"label": "mapping(address => uint256)",
						"numberOfBytes": "32",
						"value": "t_uint256"
					},
					"t_uint256": {
						"encoding": "inplace",
						"label": "uint256",
						"numberOfBytes": "32"
					}
				}
			},
			"userdoc": {
				"kind": "user",
				"methods": {},
				"version": 1
			}
		}
	}
}